:100000000C942A000C9447000C9447000C94470071
:100010000C9447000C9447000C9447000C94470044
:100020000C9447000C9447000C9447000C94470034
:100030000C9447000C9447000C9447000C94470024
:100040000C9447000C9447000C9447000C94470014
:100050000C94470011241FBECFE5D8E0DEBFCDBF12
:1000600010E0A0E6B0E0E2EAF2E002C005900D92F6
:10007000A636B107D9F720E0A6E6B0E001C01D9290
:10008000A736B207E1F70E943B010C944F010C9494
:100090000000CF93DF931F92CDB7DEB7AE014F5F65
:1000A0005F4F60E082E00E94E600811102C089811A
:1000B00001C0FFCF0F90DF91CF910895809166002E
:1000C000813001F16091640041E0809165000E94FF
:1000D000AE00811119C06091620041E0809163001F
:1000E0000E94AE00811112C06091600041E08091D9
:1000F00061000E94AE0081110BC081E08093660018
:1001000080E0089583E0089582E0089582E00895F4
:1001100082E00895909166009923D1F0823049F0F1
:10012000833061F08130B1F48091650060916400AA
:1001300009C0809163006091620004C080916100F9
:10014000609160000E941601882331F082E00895DA
:1001500084E0089581E0089580E00895683080F596
:10016000813079F028F0823031F0833039F02AC0C4
:10017000EAE3F0E008C0E4E3F0E005C0E1E3F0E02A
:1001800002C0E7E3F0E0413061F4208181E090E0DB
:1001900002C0880F991F6A95E2F7822B808380E066
:1001A0000895411111C0208181E090E002C0880FC4
:1001B000991F6A95E2F780958223808380E00895F5
:1001C00082E0089583E0089581E008954115510586
:1001D00039F1683038F5813079F028F0823031F02B
:1001E000833039F021C0E9E3F0E008C0E3E3F0E058
:1001F00005C0E0E3F0E002C0E6E3F0E0808190E0DB
:1002000002C0959587956A95E2F780FF05C081E069
:10021000FA01808380E00895FA01108280E0089559
:1002200085E0089582E0089583E008956830F8F449
:10023000813079F028F0823031F0833039F019C004
:10024000EBE3F0E008C0E5E3F0E005C0E2E3F0E056
:1002500002C0E8E3F0E0208181E090E002C0880F76
:10026000991F6A95E2F78227808380E0089582E0F3
:10027000089583E008950E945E0040E060E082E01F
:100280000E94AE008111FFCF0E9449008130E1F74A
:100290000E948A000E9449008130E1F3F5CFF89472
:0202A000FFCF8E
:0602A20002000100000053
:00000001FF
