:100000000C942A000C943F000C943F000C943F0089
:100010000C943F000C943F000C943F000C943F0064
:100020000C943F000C943F000C943F000C943F0054
:100030000C943F000C943F000C943F000C943F0044
:100040000C943F000C943F000C943F000C943F0034
:100050000C943F0011241FBECFE5D8E0DEBFCDBF1A
:1000600010E0A0E6B0E0E4E6F4E002C005900D92F6
:10007000A43FB107D9F70E94A1010C9430020C945F
:100080000000813039F480E00E94E100882321F0F3
:1000900082E0089581E0089580E008950F931F9312
:1000A000CF93DF93813039F58901D42FC62F80E0BB
:1000B0000E94F000811121C06C2F0E940701811164
:1000C0001EC06D2F0E94070181111BC00E94FB0002
:1000D000811119C06C2F61600E940701811115C048
:1000E000B8010E941301811112C00E9427018823C8
:1000F00081F082E00FC081E00DC082E00BC082E0A1
:1001000009C082E007C082E005C082E003C082E04F
:1001100001C080E0DF91CF911F910F9108951F934F
:10012000CF93DF938130E9F4122FD42FC62F80E0D4
:100130000E94F000811117C06C2F0E9407018111ED
:1001400014C06D2F0E940701811111C0612F0E9400
:10015000070181110EC00E942701882361F082E00F
:100160000BC081E009C082E007C082E005C082E0E8
:1001700003C082E001C080E0DF91CF911F9108951C
:10018000DC0140E00AC0FB01E20FF31F208192175F
:1001900019F04F5F80E00EC04F5F242F30E0FD016B
:1001A000E20FF31F9081992321F09D3061F781E0E8
:1001B00001C081E0FB01E40FF11D9081911180E00D
:1001C000089581110BC08091F00081B98091EE00FB
:1001D00080B98091EF0086BF80E0089582E00895A5
:1001E000811107C084EA86BF06B607FEFDCF80E016
:1001F000089582E00895811108C086B7806A86BF9D
:1002000006B607FEFDCF80E0089582E008958111D3
:1002100008C063B984E886BF06B607FEFDCF80E05C
:10022000089582E008956115710569F081110DC08E
:1002300086B7806886BF06B607FEFDCF83B1FB0197
:10024000808380E0089581E0089582E0089581111F
:1002500008C084E986BF96B7892F807194FDFBCFD3
:10026000089582E0089581110BC08091F3008AB94E
:100270008091F20080BD8091F10089B980E00895FD
:1002800086E00895811105C05D9BFECF6CB980E0CA
:10029000089586E008956115710549F0811109C03E
:1002A0005F9BFECF8CB1FB01808380E0089584E0EA
:1002B000089586E008956115710581F0811110C0DF
:1002C00005C05D9BFECF8CB99F5F01C090E0FB0134
:1002D000E90FF11D80818111F4CF089584E0089524
:1002E00086E008956115710541F1811128C003C0B0
:1002F00080E0982F01C090E05F9BFECF292F30E077
:10030000FB01E20FF31F8CB180838D3041F42F5F2E
:100310003F4FFB01E20FF31F108280E0089581E060
:10032000890FFB01E80FF11D31972081283009F773
:100330008130F1F28FEF890FDCCF84E0089586E001
:100340000895CF93DF93CDB7DEB7CA5CD1090FB65E
:10035000F894DEBF0FBECDBF81E00E94410080E077
:100360000E94330160E670E080E00E945B01BE0104
:100370006F5F7F4F80E00E94720165E870E0CE0100
:1003800001960E94C000813079F56BE870E080E052
:100390000E945B01BE0167537F4F80E00E944B01CA
:1003A00066EA70E080E00E945B016CEA70E080E049
:1003B0000E945B01BE0166537F4F80E00E944B01AB
:1003C000C653DF4F2881CA5CD040C753DF4F4881F6
:1003D000C95CD04060EA81E00E948F0066EA70E06C
:1003E00080E00E945B01BECF61EC70E0CE0101961F
:1003F0000E94C000813071F56BE870E080E00E94DF
:100400005B01BE0167537F4F80E00E944B0166EAAB
:1004100070E080E00E945B019E0126533F4FC7536E
:10042000DF4F4881C95CD04060EA81E00E944E0005
:1004300066EC70E080E00E945B01C653DF4F68818C
:10044000CA5CD04080E00E9442016DE080E00E94E2
:10045000420188CF6CED70E080E00E945B0182CFAA
:04046000F894FFCF3E
:10046400506C6561736520656E74657220612052FD
:100474004541442F575249544520436F6D6D616E79
:10048400643A200D00575249544500506C6561731D
:100494006520656E74657220616E204164647265C6
:1004A40073733A200D000D4F4B200D00506C6561A5
:1004B400736520656E74657220646174613A200D01
:1004C400005245414400746865206461746120737E
:1004D400746F7265642069733A200D00496E766109
:1004E4006C696420436F6D6D616E64200D000704B8
:0404F4000333861830
:00000001FF
