:100000000C942A000C94B0000C94D9000C940201BA
:100010000C942B010C9454010C947D010C94A601BA
:100020000C94CF010C94F8010C9421020C944A0218
:100030000C9473020C949C020C94C5020C94EE0276
:100040000C9417030C9440030C9469030C949203D2
:100050000C94BB0311241FBECFE5D8E0DEBFCDBF9B
:1000600010E0A0E6B0E0ECE6F8E002C005900D92EA
:10007000A436B107D9F720E0A4E6B0E001C01D9294
:10008000A53BB207E1F70E9416040C943404282F14
:1000900030E0F901EE0FFF1FEC59FF4F4081518115
:1000A000452B99F46115710581F0843170F4220FAC
:1000B000331FF901E357FF4F80819181D901AC597A
:1000C000BF4F8D939C9371836083089581110BC002
:1000D0008091630081B98091610080B98091620054
:1000E00086BF80E0089582E00895811105C086B73B
:1000F000846A86BF80E0089582E00895811106C079
:1001000063B986B7846886BF80E0089582E0089569
:10011000811108C084E986BF96B7892F807194FD4C
:10012000FBCF089582E008956115710541F08111BA
:1001300008C081B1887FFB01808380E0089581E061
:10014000089582E00895811105C086B7816086BF59
:1001500080E0089582E008958FB780688FBF08958A
:100160001F920F920FB60F9211242F933F934F932C
:100170005F936F937F938F939F93AF93BF93EF930F
:10018000FF93E0918D00F0918E00309709F0099572
:10019000FF91EF91BF91AF919F918F917F916F915F
:1001A0005F914F913F912F910F900FBE0F901F9035
:1001B00018951F920F920FB60F9211242F933F9311
:1001C0004F935F936F937F938F939F93AF93BF935F
:1001D000EF93FF93E0918F00F0919000309709F03A
:1001E0000995FF91EF91BF91AF919F918F917F9171
:1001F0006F915F914F913F912F910F900FBE0F9094
:100200001F9018951F920F920FB60F9211242F93E3
:100210003F934F935F936F937F938F939F93AF938E
:10022000BF93EF93FF93E0919100F091920030978C
:1002300009F00995FF91EF91BF91AF919F918F9137
:100240007F916F915F914F913F912F910F900FBED2
:100250000F901F9018951F920F920FB60F921124B6
:100260002F933F934F935F936F937F938F939F93BE
:10027000AF93BF93EF93FF93E0919300F0919400BD
:10028000309709F00995FF91EF91BF91AF919F9140
:100290008F917F916F915F914F913F912F910F902F
:1002A0000FBE0F901F9018951F920F920FB60F92CE
:1002B00011242F933F934F935F936F937F938F936B
:1002C0009F93AF93BF93EF93FF93E0919500F091CD
:1002D0009600309709F00995FF91EF91BF91AF918A
:1002E0009F918F917F916F915F914F913F912F914E
:1002F0000F900FBE0F901F9018951F920F920FB680
:100300000F9211242F933F934F935F936F937F939B
:100310008F939F93AF93BF93EF93FF93E0919700D9
:10032000F0919800309709F00995FF91EF91BF91F6
:10033000AF919F918F917F916F915F914F913F917D
:100340002F910F900FBE0F901F9018951F920F9234
:100350000FB60F9211242F933F934F935F936F9398
:100360007F938F939F93AF93BF93EF93FF93E0910E
:100370009900F0919A00309709F00995FF91EF915B
:10038000BF91AF919F918F917F916F915F914F91AD
:100390003F912F910F900FBE0F901F9018951F92B5
:1003A0000F920FB60F9211242F933F934F935F93A9
:1003B0006F937F938F939F93AF93BF93EF93FF932D
:1003C000E0919B00F0919C00309709F00995FF9116
:1003D000EF91BF91AF919F918F917F916F915F91BD
:1003E0004F913F912F910F900FBE0F901F90189536
:1003F0001F920F920FB60F9211242F933F934F939A
:100400005F936F937F938F939F93AF93BF93EF937C
:10041000FF93E0919D00F0919E00309709F00995BF
:10042000FF91EF91BF91AF919F918F917F916F91CC
:100430005F914F913F912F910F900FBE0F901F90A2
:1004400018951F920F920FB60F9211242F933F937E
:100450004F935F936F937F938F939F93AF93BF93CC
:10046000EF93FF93E0919F00F091A000309709F087
:100470000995FF91EF91BF91AF919F918F917F91DE
:100480006F915F914F913F912F910F900FBE0F9001
:100490001F9018951F920F920FB60F9211242F9351
:1004A0003F934F935F936F937F938F939F93AF93FC
:1004B000BF93EF93FF93E091A100F091A2003097DA
:1004C00009F00995FF91EF91BF91AF919F918F91A5
:1004D0007F916F915F914F913F912F910F900FBE40
:1004E0000F901F9018951F920F920FB60F92112424
:1004F0002F933F934F935F936F937F938F939F932C
:10050000AF93BF93EF93FF93E091A300F091A4000A
:10051000309709F00995FF91EF91BF91AF919F91AD
:100520008F917F916F915F914F913F912F910F909C
:100530000FBE0F901F9018951F920F920FB60F923B
:1005400011242F933F934F935F936F937F938F93D8
:100550009F93AF93BF93EF93FF93E091A500F0912A
:10056000A600309709F00995FF91EF91BF91AF91E7
:100570009F918F917F916F915F914F913F912F91BB
:100580000F900FBE0F901F9018951F920F920FB6ED
:100590000F9211242F933F934F935F936F937F9309
:1005A0008F939F93AF93BF93EF93FF93E091A70037
:1005B000F091A800309709F00995FF91EF91BF9154
:1005C000AF919F918F917F916F915F914F913F91EB
:1005D0002F910F900FBE0F901F9018951F920F92A2
:1005E0000FB60F9211242F933F934F935F936F9306
:1005F0007F938F939F93AF93BF93EF93FF93E0917C
:10060000A900F091AA00309709F00995FF91EF91A8
:10061000BF91AF919F918F917F916F915F914F911A
:100620003F912F910F900FBE0F901F9018951F9222
:100630000F920FB60F9211242F933F934F935F9316
:100640006F937F938F939F93AF93BF93EF93FF939A
:10065000E091AB00F091AC00309709F00995FF9163
:10066000EF91BF91AF919F918F917F916F915F912A
:100670004F913F912F910F900FBE0F901F901895A3
:100680001F920F920FB60F9211242F933F934F9307
:100690005F936F937F938F939F93AF93BF93EF93EA
:1006A000FF93E091AD00F091AE00309709F009950D
:1006B000FF91EF91BF91AF919F918F917F916F913A
:1006C0005F914F913F912F910F900FBE0F901F9010
:1006D00018951F920F920FB60F9211242F933F93EC
:1006E0004F935F936F937F938F939F93AF93BF933A
:1006F000EF93FF93E091AF00F091B000309709F0D5
:100700000995FF91EF91BF91AF919F918F917F914B
:100710006F915F914F913F912F910F900FBE0F906E
:100720001F9018951F920F920FB60F9211242F93BE
:100730003F934F935F936F937F938F939F93AF9369
:10074000BF93EF93FF93E091B100F091B200309727
:1007500009F00995FF91EF91BF91AF919F918F9112
:100760007F916F915F914F913F912F910F900FBEAD
:100770000F901F9018951F920F920FB60F92112491
:100780002F933F934F935F936F937F938F939F9399
:10079000AF93BF93EF93FF93E091B300F091B40058
:1007A000309709F00995FF91EF91BF91AF919F911B
:1007B0008F917F916F915F914F913F912F910F900A
:1007C0000FBE0F901F9018956CE870E080E00E94BB
:1007D000940080918C008832B1F028F4883041F088
:1007E000883159F00895803371F08833D9F0089535
:1007F00060EA80E00E947E0008956091600080E0E1
:100800000E947E000895609160006A3521F480E0C6
:100810000E94880008956F5F6093600080E00E94EE
:100820007E00089581E4809360000895CF93DF9364
:100830001F92CDB7DEB780E00E94660080E00E9484
:10084000A30064EE73E082E10E9447000E94AC00C6
:10085000198203C089818F5F898389818F3FD1F796
:0C08600080E00E947500FFCFF894FFCFED
:04086C00410804003B
:00000001FF
