S0100000436172645F4543552E737265635E
S11300000C942A000C9447000C9447000C9447006D
S11300100C9498040C946F040C9447000C944700BF
S11300200C9447000C9447000C9446040C941D0453
S11300300C94F4030C943B050C9462050C94890510
S11300400C9447000C9447000C9447000C94470010
S11300500C94470011241FBECFE5D8E0DEBFCDBF0E
S113006011E0A0E6B0E0E4E6FBE002C005900D92EA
S1130070AA35B107D9F722E0AAE5B1E001C01D9283
S1130080AD38B207E1F70E9468020C94B0050C94F5
S113009000000E94FB0241E068E772E081E00E94F8
S11300A0B00341E062E872E081E00E94B0030E9484
S11300B010020E94F702089529E04EE652E060E043
S11300C081E00E94C70129E048E752E06AE081E04C
S11300D00E94C70124E042E852E064E181E00E940A
S11300E0C70108950E94FB0260E670E080E00E9470
S11300F0D40464E672E080E00E94E6040AC06CE77F
S113010070E080E00E94D40464E672E080E00E9423
S1130110E60484E692E00E945B028A3080F784E67B
S113012092E00E945B02882351F329E044E652E006
S113013060E081E00E94EA016DEB70E080E00E94E3
S1130140D40464E672E080E00E94E6040AC06CEC29
S113015070E080E00E94D40464E672E080E00E94D3
S1130160E60484E692E00E945B02893081F729E08C
S113017044E652E06AE081E00E94EA0165EF70E043
S113018080E00E94D40464E672E080E00E94E60409
S11301900AC064E071E080E00E94D40464E672E086
S11301A080E00E94E60484E692E00E945B028430D0
S11301B081F724E044E652E064E181E00E94EA0130
S11301C06DE271E080E00E94D4040E945C000E9411
S11301D0F702089581E00E944F0180E00E94C1046B
S11301E060E080E00E94090540E151E060E080E0C9
S11301F00E941E0581E00E94510369E470E081E0E1
S11302000E94EB0381E00E94E3030E94F7020E9434
S11302105C00809182028F3F11F40E947200089565
S113022060915A0170E0655A7E4F80E090E00E9430
S1130230360580915A0190E0FC01E55AFE4F208179
S11302402D3071F4FC01E45AFE4F108264E571E034
S11302508BE591E00E943A02813011F40E94720011
S113026080915A018F5F80935A01E82FF0E0E65A9B
S1130270FE4F9081983041F4813021F08250809378
S11302805A0102C010925A01E0915A01F0E0E65A74
S1130290FE4F80818D3011F410925A0108958130FF
S11302A039F480E00E94FF02882321F082E008955F
S11302B081E0089580E008950F931F93CF938130D8
S11302C029F58A01C62F80E00E940B03811120C00A
S11302D060EA0E94240381111DC06C2F0E94240334
S11302E081111AC00E941603811118C061EA0E948C
S11302F02403811115C0B8010E943103811112C079
S11303000E944503882381F082E00FC081E00DC084
S113031082E00BC082E009C082E007C082E005C031
S113032082E003C082E001C080E0CF911F910F9171
S11303300895CF93DF938130E1F4D42FC62F80E06A
S11303400E940B03811117C060EA0E9424038111EB
S113035014C06C2F0E942403811111C06D2F0E94C0
S1130360240381110EC00E944503882361F082E0BA
S11303700BC081E009C082E007C082E005C082E0D2
S113038003C082E001C080E0DF91CF910895EF9235
S1130390FF920F931F93CF93DF93E82EF62E8A01DB
S11303A0D22FC0E00BC0A8014C0F511D6C2F6F0D54
S11303B08E2D0E945C01811105C0CF5FCD1798F38B
S11303C080E001C082E0DF91CF911F910F91FF90F7
S11303D0EF900895EF92FF920F931F93CF93DF93C3
S11303E0E82EF62E8A01D22FC0E00EC0F801EC0FE1
S11303F0F11D40816C2F6F0D8E2D0E94990181118A
S113040007C00E941002CF5FCD1780F380E001C0C7
S113041082E0DF91CF911F910F91FF90EF900895AB
S1130420CF93DF9300D000D0CDB7DEB71A82198204
S113043015C01C820BC01B8203C08B818F5F8B8312
S11304408B818230D0F38C818F5F8C838C8180325E
S113045090F389819A8101969A83898389819A810B
S11304608436910530F30F900F900F900F90DF9129
S1130470CF910895DC0140E00AC0FB01E20FF31FB5
S11304802081921719F04F5F80E00EC04F5F242F38
S113049030E0FD01E20FF31F9081992321F09D309C
S11304A061F781E001C081E0FB01E40FF11D90815F
S11304B0911180E008959C0180E001C08F5FF901F3
S11304C0E80FF11D9081992311F09D30B9F708953B
S11304D00E94EA00FFCF8130D1F028F0823059F138
S11304E08330E9F108952AB381E090E0062E02C03A
S11304F0880F991F0A94E2F750E002C0440F551F79
S11305006A95E2F780958223482B4ABB089527B366
S113051081E090E0062E02C0880F991F0A94E2F74A
S113052050E002C0440F551F6A95E2F7809582237C
S1130530482B47BB089524B381E090E0062E02C007
S1130540880F991F0A94E2F750E002C0440F551F28
S11305506A95E2F780958223482B44BB089521B322
S113056081E090E0062E02C0880F991F0A94E2F7FA
S113057050E002C0440F551F6A95E2F7809582232C
S1130580482B41BB0895813089F028F08230C9F0AE
S1130590833011F1089589B390E002C09595879551
S11305A06A95E2F78170FA018083089586B390E03A
S11305B002C0959587956A95E2F78170FA01808368
S11305C0089583B390E002C0959587956A95E2F704
S11305D08170FA018083089580B390E002C09595FC
S11305E087956A95E2F78170FA01808308958FB741
S11305F080688FBF08958FB78F778FBF089581115B
S113060008C083E081B987E080B984E086BF80E0D8
S1130610089582E00895811107C084EA86BF06B672
S113062007FEFDCF80E0089582E0089581110AC09D
S113063084E086BF86B7806A86BF06B607FEFDCF14
S113064080E0089582E00895811109C063B986B7F6
S1130650846886BF06B607FEFDCF80E0089582E079
S113066008956115710569F081110DC086B784681C
S113067086BF06B607FEFDCF83B1FB01808380E011
S1130680089581E0089582E00895811108C084E905
S113069086BF96B7892F807194FDFBCF089582E0C1
S11306A008958230D8F41DB88DB18F7E8DB941E0A4
S11306B066E081E00E946B028DB184608DB98DB1DA
S11306C0877F8DB98DB18F7D8DB98EB18EB18FB18C
S11306D01FB88DB180648DB980E0089581E00895DC
S11306E01F93CF93DF931F92CDB7DEB7162F1982D6
S11306F0AE014F5F5F4F64E081E00E94C3028981D5
S1130700882331F01FB9769B05C08FB184E003C004
S113071085E001C080E00F90DF91CF911F91089593
S1130720779B05C08FB1FB01808380E0089585E04D
S113073008951F93CF93DF93162FEA0141E0612FB1
S113074081E00E9470038111F9CF41E0BE0181E094
S11307500E9490038111F9CFDF91CF911F910895E9
S1130760EF92FF920F931F93CF93DF931F92CDB716
S1130770DEB7E82E8B01F42E1982F80180818111F5
S11307800BC02F2DAE014F5F5F4F60E08E2D0E9496
S113079099038111F6CF0EC02F2DAE014F5F5F4F2D
S11307A0F80160818E2D0E9499038111F5CF0F5FAE
S11307B01F4FE3CF80E00F90DF91CF911F910F91F6
S11307C0FF90EF9008958FB780688FBF8DB18068D8
S11307D08DB980E008956115710521F070935B0275
S11307E060935A0280E008951F920F920FB60F9201
S11307F011242F933F934F935F936F937F938F9322
S11308009F93AF93BF93EF93FF93E0915A02F091BC
S11308105B02309709F00995FF91EF91BF91AF9179
S11308209F918F917F916F915F914F913F912F9104
S11308300F900FBE0F901F9018951F920F920FB636
S11308400F9211242F933F934F935F936F937F9352
S11308508F939F93AF93BF93EF93FF93E0916202C3
S1130860F0916302309709F00995FF91EF91BF91E0
S1130870AF919F918F917F916F915F914F913F9134
S11308802F910F900FBE0F901F9018951F920F92EB
S11308900FB60F9211242F933F934F935F936F934F
S11308A07F938F939F93AF93BF93EF93FF93E091C5
S11308B06002F0916102309709F00995FF91EF9180
S11308C0BF91AF919F918F917F916F915F914F9164
S11308D03F912F910F900FBE0F901F9018951F926C
S11308E00F920FB60F9211242F933F934F935F9360
S11308F06F937F938F939F93AF93BF93EF93FF93E4
S1130900E0915E02F0915F02309709F00995FF9142
S1130910EF91BF91AF919F918F917F916F915F9173
S11309204F913F912F910F900FBE0F901F901895EC
S11309301F920F920FB60F9211242F933F934F9350
S11309405F936F937F938F939F93AF93BF93EF9333
S1130950FF93E0915C02F0915D02309709F00995F4
S1130960FF91EF91BF91AF919F918F917F916F9183
S11309705F914F913F912F910F900FBE0F901F9059
S113098018958AB180618AB98AB188608AB98BB1B5
S11309908D7F8BB98AB18B7F8AB980B5866880BD1B
S11309A083E389B980E0089580E004C09CB95D9B2D
S11309B0FECF8F5FFB01E80FF11D90819111F6CFFF
S11309C08DE08CB95D9BFECF80E0089590E002C07D
S11309D080E0982F5F9BFECFFB01E90FF11D8CB1E6
S11309E080838D3099F081E0890FFB01E80FF11DC0
S11309F031972081283029F4823018F08FEF890F45
S1130A00E8CF283031F7823020F7E2CF108280E03F
S1130A100895811111C0613041F018F0623049F03D
S1130A200BC08AB180688AB907C08AB180648AB968
S1130A3003C08AB180628AB980E00895811114C02C
S1130A40613049F018F0623059F00EC050938802BA
S1130A504093870209C050938A024093890204C0DC
S1130A6050938C0240938B0280E008958CB1FB017B
S1130A70808380E008951F920F920FB60F92112485
S1130A802F933F934F935F936F937F938F939F9392
S1130A90AF93BF93EF93FF93E0918702F0918802A5
S1130AA00995FF91EF91BF91AF919F918F917F91A4
S1130AB06F915F914F913F912F910F900FBE0F90C7
S1130AC01F9018951F920F920FB60F9211242F9317
S1130AD03F934F935F936F937F938F939F93AF93C2
S1130AE0BF93EF93FF93E0918B02F0918C020995F1
S1130AF0FF91EF91BF91AF919F918F917F916F91F2
S1130B005F914F913F912F910F900FBE0F901F90C7
S1130B1018951F920F920FB60F9211242F933F93A3
S1130B204F935F936F937F938F939F93AF93BF93F1
S1130B30EF93FF93E0918902F0918A020995FF9166
S1130B40EF91BF91AF919F918F917F916F915F9141
S1130B504F913F912F910F900FBE0F901F901895BA
S1070B60F894FFCF33
S1130B64456E74657220546865204361726420483C
S1130B746F6C646572204E616D653A00506C6561FA
S1130B84736520656E74657220612043617264200C
S1130B94486F6C646572204E616D6520626574777C
S1130BA465656E203120616E64203920636861724A
S1130BB4616374657273206C6F6E672E00456E7486
S1130BC46572205468652050414E3A00506C65614A
S1130BD4736520656E74657220612050414E206FE8
S1130BE46620392063686172616374657273206C72
S1130BF46F6E672E00456E746572205468652050CC
S1130C04494E3A00506C6561736520656E74657273
S1130C1420612050494E206F66203420636861723D
S1130C24616374657273206C6F6E672E0044617423
S1130C3461205570646174656421200D5265747576
S1130C44726E696E6720746F2055736572204D6FE0
S10D0C5464652E0041444D494E0032
S9030000FC
