:100000000C942A000C9447000C9447000C94470071
:100010000C9447000C9447000C9447000C94470044
:100020000C9447000C9447000C9447000C94470034
:100030000C9447000C948D030C9447000C944700DB
:100040000C9447000C9447000C9447000C94470014
:100050000C94470011241FBECFE5D8E0DEBFCDBF12
:1000600010E0A0E6B0E0ECE6F7E002C005900D92EB
:10007000AE3AB107D9F722E0AEEAB0E001C01D9276
:10008000A93CB207E1F70E941F020C94B4030C9440
:10009000000081E00E94100180E00E94B3010E94F4
:1000A000D00208950F931F93CF938C01C0E008C036
:1000B000A8014C0F511D6C2F81E00E941D01CF5FE4
:1000C000CA30B0F3C0E00CC04C2F50E0465F5F4F29
:1000D000400F511F6AE06C0F81E00E941D01CF5F4D
:1000E000CA3090F3C0E00CC04C2F50E04C5E5F4F24
:1000F000400F511F64E16C0F81E00E941D01CF5F32
:10010000C53090F3CF911F910F9108951F93CF9316
:10011000DF93CDB7DEB7CF5FD1090FB6F894DEBF5E
:100120000FBECDBF41E060E080E00E9460020E940F
:10013000D40260E670E080E00E94ED01CE010196FD
:100140000E94CF0104C0CE0101960E94CF01898197
:100150008823C9F341E060E080E00E94980210E04B
:100160000CC0E1E0F0E0EC0FFD1FE10FF11D40815C
:10017000612F81E00E9460011F5F1A3090F36EE7EB
:1001800070E080E00E94ED01CE0101960E94CF0157
:1001900004C0CE0101960E94CF0189818823C9F352
:1001A00010E00DC0E1E0F0E0EC0FFD1FE10FF11DEC
:1001B0006AE0610F408181E00E9460011F5F1A3098
:1001C00088F36FE870E080E00E94ED01CE010196B7
:1001D0000E94CF0104C0CE0101960E94CF01898107
:1001E0008823C9F310E00DC0E1E0F0E0EC0FFD1F43
:1001F000E10FF11D64E1610F408181E00E94600127
:100200001F5F153088F30E94D002C150DF4F0FB638
:10021000F894DEBF0FBECDBFDF91CF911F9108953F
:10022000813039F480E00E94D802882321F082E0F6
:10023000089581E0089580E008950F931F93CF9370
:10024000813049F58A01C62F80E00E94E4028111C5
:1002500024C060EA0E94FA02811121C06C2F0E9422
:10026000FA0281111EC00E941B0381111CC00E9452
:10027000EF0281111AC061EA0E94FA02811117C0CF
:10028000B8010E940703811114C00E941B03882338
:1002900091F082E011C081E00FC082E00DC082E0E9
:1002A0000BC082E009C082E007C082E005C082E0A6
:1002B00003C082E001C080E0CF911F910F910895AB
:1002C000CF93DF938130E1F4D42FC62F80E00E94DA
:1002D000E402811117C060EA0E94FA02811114C081
:1002E0006C2F0E94FA02811111C06D2F0E94FA0238
:1002F00081110EC00E941B03882361F082E00BC0B5
:1003000081E009C082E007C082E005C082E003C04E
:1003100082E001C080E0DF91CF9108958091AF002D
:10032000282F30E09CB1F901E055FF4F90839D30BC
:1003300039F4F901EF54FF4F108291E09093AE0031
:100340008F5F8093AF00E82FF0E0E155FF4F908181
:10035000983041F4813021F082508093AF000895AD
:100360001092AF000895811112C00E9427038111DD
:1003700010C060E80E94530381110DC04EE851E0A7
:1003800060E80E946203882341F082E0089581E0E2
:10039000089582E0089582E0089580E00895DC01E8
:1003A000892BC9F08091AE00811108C01C9208957C
:1003B000FD01E90FF11D80839F5F01C090E0E92FEF
:1003C000F0E0E055FF4F80818111F2CF1092AF0035
:1003D0001092AE00089583E008956115710541F013
:1003E000811108C00E943C03882331F082E0089507
:1003F00083E0089581E0089580E00895DC0140E005
:100400000AC0FB01E20FF31F2081921719F04F5F22
:1004100080E00EC04F5F242F30E0FD01E20FF31F9C
:100420009081992321F09D3061F781E001C081E046
:10043000FB01E40FF11D9081911180E008950E946D
:1004400049000E94860080EB92E00E94520060EB1F
:1004500072E080E00E943C036DE080E00E94330384
:100460006DE080E00E9433036AEB72E080E00E945E
:100470003C036DE080E00E9433036DE080E00E9469
:10048000330364EC72E080E00E943C036DE080E0A6
:100490000E9433036DE080E00E94330381EB91E022
:1004A0000E94CF0160EA70E081EB91E00E94FE01C2
:1004B0008130A1F766EA70E080E00E94ED01EECFA6
:1004C000683080F5813079F028F0823031F0833067
:1004D00039F02AC0EAE3F0E008C0E4E3F0E005C048
:1004E000E1E3F0E002C0E7E3F0E0413061F42081B5
:1004F00081E090E002C0880F991F6A95E2F7822B95
:10050000808380E00895411111C0208181E090E056
:1005100002C0880F991F6A95E2F780958223808335
:1005200080E0089582E0089583E0089581E00895D1
:10053000683080F5813079F028F0823031F08330F6
:1005400039F02AC0EBE3F0E008C0E5E3F0E005C0D5
:10055000E2E3F0E002C0E8E3F0E0413061F4208142
:1005600081E090E002C0880F991F6A95E2F7822B24
:10057000808380E00895411111C0208181E090E0E6
:1005800002C0880F991F6A95E2F7809582238083C5
:1005900080E0089582E0089583E0089584E008955E
:1005A0008FB780688FBF08958FB78F778FBF0895FB
:1005B000811108C083E081B987E080B984E086BFFB
:1005C00080E0089582E00895811107C084EA86BF23
:1005D00006B607FEFDCF80E0089582E00895811100
:1005E00007C084EA86BF06B607FEFDCF80E0089507
:1005F00082E00895811109C063B986B7846886BF17
:1006000006B607FEFDCF80E0089582E008956115EB
:10061000710569F081110DC086B7846886BF06B682
:1006200007FEFDCF83B1FB01808380E0089581E068
:10063000089582E00895811108C084E986BF96B7C5
:10064000892F807194FDFBCF089582E00895811178
:1006500008C088E18AB986E880BD83E389B980E073
:10066000089586E00895811105C05D9BFECF6CB9A9
:1006700080E0089586E008956115710581F081118B
:1006800010C005C05D9BFECF8CB99F5F01C090E09C
:10069000FB01E90FF11D80818111F4CF089584E001
:1006A000089586E00895603811F0603439F48111BE
:1006B00007C08AB1682B6AB980E0089587E0089581
:1006C00086E00895CF93DF931F92CDB7DEB7411533
:1006D0005105C1F0603811F06034B1F4811116C0D9
:1006E0001982603419F4898180E013C0603881F484
:1006F000E981F0E0EE0FFF1FE155FE4F518340838B
:1007000080E007C084E005C087E003C086E001C048
:1007100087E00F90DF91CF9108951F920F920FB64F
:100720000F9211242F933F934F935F936F937F9377
:100730008F939F93AF93BF93EF93FF93E091AF019C
:10074000F091B0010995FF91EF91BF91AF919F9109
:100750008F917F916F915F914F913F912F910F906A
:0C0760000FBE0F901F901895F894FFCF6B
:10076C00456E74657220546865204361726420483C
:10077C006F6C646572204E616D653A200D00456E9C
:10078C00746572205468652050414E3A200D004526
:10079C006E746572205468652050494E3A200D00E5
:0E07AC0041444D494E007961797979790D000B
:00000001FF
