S01200005472616E736D697465722E73726563E9
S113000034C000004FC000004DC000004BC00000D1
S113001049C0000047C0000045C0000023C20000E2
S113002041C000003FC000003DC000003BC00000D4
S113003039C000000C941A1135C0000033C0000010
S113004031C000002FC000002DC000002BC00000F4
S113005029C0000024133A13221350137D138B1369
S11300609413DD13F1131814141411241FBECFE5D7
S1130070D8E0DEBFCDBF11E0A0E6B0E0E0E3F0E3FE
S113008002C005900D92A43CB107D9F727E0A4EC77
S1130090B1E001C01D92A03DB207E1F70E94011634
S11300A00C941618ADCFFC010396928381832FEF35
S11300B03FEF3483238396838583908787831082DD
S11300C00895FC01118610860895CF93DF939C0157
S11300D0FB01DC011196CD91DC911297D383C2838D
S11300E08C819D81958384838C819D81DC01139611
S11300F07C936E9312977D836C8331872087F901FB
S113010080818F5F8083DF91CF910895CF93DF93B8
S1130110EB01488159814F3F2FEF520721F4FC0135
S1130120A781B0850DC0DC01139601C0DF011296D2
S1130130ED91FC9113972081318142175307B0F759
S11301401296ED91FC911397FB83EA83D583C483C4
S1130150BD83AC831396DC93CE93129799878887DB
S1130160FC0120812F5F2083DF91CF910895CF93ED
S1130170DF93FC01A085B185C281D38184819581FF
S11301809D838C83C481D581828193819B838A835F
S113019011968D919C911297E817F90731F4848197
S11301A0958112969C938E931197118610868C914B
S11301B081508C93DF91CF9108951BBC89EF8ABD48
S11301C08BE08EBD89B7806189BF089531E1FC0160
S11301D03083319722E220833197A3E3A0833197C0
S11301E060833197708331971082319760E8608320
S11301F031971082319762E06083319763E06083C6
S1130200319764E06083319765E06083319766E0FD
S11302106083319767E06083319768E0608331974A
S113022069E06083319760E160833197308331976F
S113023032E13083319733E13083319734E13083D5
S1130240319735E13083319736E13083319737E1A7
S11302503083319738E13083319739E130833197F6
S113026030E23083319731E2308331972083319704
S113027023E220833197408331975083319726E2DC
S11302802083319727E22083319728E22083319716
S113029029E22083319720E32083319721E32083CF
S11302A0869708958ADFA0910906B0910A06CD9138
S11302B0CDBFDD91DEBFFF91EF91DF91CF91BF9173
S11302C0AF919F918F917F916F915F914F913F91EA
S11302D02F911F910F91FF90EF90DF90CF90BF90DF
S11302E0AF909F908F907F906F905F904F903F90D2
S11302F02F901F900F900FBE0F90089581E00895E6
S11303000F920FB6F8940F921F9211242F923F92DE
S11303104F925F926F927F928F929F92AF92BF9211
S1130320CF92DF92EF92FF920F931F932F933F93FD
S11303304F935F936F937F938F939F93AF93BF93E9
S1130340CF93DF93EF93FF93A0910906B0910A0630
S11303500DB60D920EB60D92F5D4A0910906B0918A
S11303600A06CD91CDBFDD91DEBFFF91EF91DF9104
S1130370CF91BF91AF919F918F917F916F915F9139
S11303804F913F912F911F910F91FF90EF90DF902C
S1130390CF90BF90AF909F908F907F906F905F9021
S11303A04F903F902F901F900F900FBE0F90089585
S11303B00F920FB6F8940F921F9211242F923F922E
S11303C04F925F926F927F928F929F92AF92BF9261
S11303D0CF92DF92EF92FF920F931F932F933F934D
S11303E04F935F936F937F938F939F93AF93BF9339
S11303F0CF93DF93EF93FF93A0910906B0910A0680
S11304000DB60D920EB60D923ED381119BD4A091E0
S11304100906B0910A06CD91CDBFDD91DEBFFF91F3
S1130420EF91DF91CF91BF91AF919F918F917F9188
S11304306F915F914F913F912F911F910F91FF9079
S1130440EF90DF90CF90BF90AF909F908F907F9070
S11304506F905F904F903F902F901F900F900FBE22
S11304600F900895A5DF1895ECECF1E0A0EDB1E054
S1130470B183A08313821282E4EBF5E0F093CB0105
S1130480E093CA01138212821182108284EE93E0F7
S113049013969C938E931297ED93FC939093C701BC
S11304A08093C6019093C9018093C80180E090E8CD
S11304B09093C5018093C4010895CF93DF93EC0119
S11304C0ACECB1E001C0DF01ED91FC911197EC17A8
S11304D0FD07C8F312968D919C9113979D01280FE7
S11304E0391FC217D30749F42A813B81820F931F16
S11304F013969C938E931297ED018A819B819E01A2
S1130500280F391FE217F307C1F42091CA01309173
S1130510CB01E217F30771F022813381820F931F1D
S11305209B838A83ED91FC911197808191819983BA
S1130530888305C03983288302C0F983E883CA17F6
S1130540DB0711F0CD93DC93DF91CF910895EF9207
S1130550FF920F931F93CF93DF938C0184D28091EA
S1130560CA019091CB01892B09F47EDF8091C401EB
S11305709091C50180239123892B09F066C0011550
S1130580110511F00C5F1F4F0115110509F460C02E
S11305908091C8019091C9018017910708F45BC04C
S11305A0C091CC01D091CD01ECECF1E002C0FE0190
S11305B0EC018A819B818017910720F488819981BD
S11305C00097A9F78091CA019091CB01C817D90768
S11305D009F444C0E080F18084E0E80EF11C8881D5
S11305E09981918380832A813B81201B310B29309F
S11305F0310548F0CE01800F911FFC013383228323
S11306001B830A835ADF2A813B818091C801909120
S1130610C901821B930B9093C9018093C801409137
S1130620C6015091C7018417950720F49093C70120
S11306308093C6018091C4019091C501282B392B68
S11306403B832A83198218820BC0E12CF12C08C049
S1130650E12CF12C05C0E12CF12C02C0E12CF12C91
S1130660C8D2C701DF91CF911F910F91FF90EF90F6
S113067008950F931F93CF93DF93009739F1EC0103
S113068024974A815B812091C4013091C501BA014C
S113069062237323672BD1F068817981672BB1F4CE
S11306A020953095242335233B832A83DCD18A810A
S11306B09B812091C8013091C901820F931F9093AF
S11306C0C9018093C801CE01F8DE93D2DF91CF91A6
S11306D01F910F910895E091D105F091D205808189
S11306E0811107C08FEF9FEF9093BC058093BB05EA
S11306F00895E091D105F091D2050580F681E02DB1
S11307000680F781E02D828193819093BC058093CC
S1130710BB0508956F927F928F929F92AF92BF9282
S1130720CF92DF92EF920F931F93CF93DF93CDB7C6
S1130730DEB74C01F5018789908D215031093C01C8
S1130740620E731E20E00FC0822F90E0FB01E80FC1
S1130750F91F3081D501A80FB91F59963C938081A8
S1130760882319F02F5F283078F3F50110A2F3E005
S1130770FE1520F40F2EF3E0EF2EF02DF501E68A9E
S1130780C50102969EDCC5010C969BDCF501B18681
S1130790A08684E090E08E19910995878487B38AB6
S11307A0A28A11A212A213A214A215A2A801B40132
S11307B0C3010CDDF50191838083C114D10419F0C8
S11307C0F601B182A082DF91CF911F910F91EF903A
S11307D0DF90CF90BF90AF909F908F907F906F905D
S11307E008958091E5058230E0F38ADDFACFCF9356
S11307F0C0E00FC08C2F90E09C01220F331F220F0A
S1130800331F220F331F820F931F8B519A4F4BDCE0
S1130810CF5FC43078F38CED95E045DC83ED95E053
S113082042DC86EC95E03FDC8CED95E09093D205BC
S11308308093D10583ED95E09093D0058093CF0507
S1130840CF910895CF93DF93EC010FB6F8940F92F4
S11308508091C5058F5F8093C505809109069091AD
S11308600A06892B51F4D0930A06C0930906809195
S1130870C505813091F4BBDF10C08091C1058111A1
S11308800CC0E0910906F0910A0696898E898917B1
S113089020F0D0930A06C09309068091BD058F5FAE
S11308A08093BD058E899091C205981710F48093AA
S11308B0C20590E09C01220F331F220F331F220F29
S11308C0331F820F931FBE016E5F7F4F8B519A4F70
S11308D0FCDB0F900FBE8091C105882349F0E091A5
S11308E00906F0910A0696898E89981708F408DD9E
S11308F0DF91CF9108950F931F93CF93DF93EC0172
S11309000091C3051091C4058091090690910A06CF
S113091002962DDCC00FD11FE0910906F0910A0662
S1130920D383C283C017D10760F460910906709124
S11309300A068091CF059091D0056E5F7F4FE6DB6C
S113094016C06091090670910A068091D1059091B4
S1130950D2056E5F7F4FDADB8091BB059091BC05B9
S1130960C817D90720F4D093BC05C093BB05DF9109
S1130970CF911F910F9108952F923F924F925F92C2
S11309806F927F928F929F92AF92BF92CF92DF929B
S1130990EF92FF920F931F93CF93DF933C011B01C0
S11309A05A012901CA01D3DD6C01892B61F086E269
S11309B090E0CDDDEC01892B19F0D88ECF8A05C0EB
S11309C0C60157DE02C0C0E0D0E0209781F0950157
S11309D040E050E0812C912C5E016701E02E820101
S11309E0B101C30197DECE012DDF81E001C08FEF9D
S11309F0DF91CF911F910F91FF90EF90DF90CF90F7
S1130A00BF90AF909F908F907F906F905F904F902A
S1130A103F902F900895EF92FF920F930F2EF9EBD2
S1130A20EF2EF5E0FF2EF02D00E020E030E045E56C
S1130A3050E06FE970E081EF93E09EDF813079F45C
S1130A40F8948FEF9FEF9093BC058093BB0581E0F2
S1130A508093C1051092C4051092C30523DC0F9145
S1130A60FF90EF9008958091B8058F5F8093B8054B
S1130A7008950FB6F8940F928091C3059091C40520
S1130A800F900FBE0895DF92EF92FF920F931F9382
S1130A90CF93DF938091B805811193C0E090C30593
S1130AA0F090C4058FEFE81AF80AF092C405E092BA
S1130AB0C305E114F104B1F48091D1059091D205FC
S1130AC02091CF053091D0053093D2052093D105E4
S1130AD09093D0058093CF058091BE058F5F80935E
S1130AE0BE05F9DD8091BB059091BC05E816F906B9
S1130AF028F4D12C50C0DD24D39401C0D12CE09132
S1130B00D105F091D2058081811107C08FEF9FEF4D
S1130B109093BC058093BB053EC0E091D105F09154
S1130B20D2050580F681E02DC681D7818A819B811B
S1130B30E816F90628F49093BC058093BB052BC0F6
S1130B408E010E5F1F4FC80112DB8C899D89892B92
S1130B5019F0CE010C960BDB8E899091C205981783
S1130B6010F48093C20590E09C01220F331F220FE2
S1130B70331F220F331F820F931FB8018B519A4FDB
S1130B80A4DA9E89E0910906F0910A0686899817ED
S1130B9008F0B1CFB4CFE0910906F0910A06868936
S1130BA090E0FC01EE0FFF1FEE0FFF1FEE0FFF1F83
S1130BB08E0F9F1FFC01EB51FA4F8081823040F46D
S1130BC009C08091C0058F5F8093C005D12C02C0FD
S1130BD0DD24D3948091BF05882311F0DD24D394C0
S1130BE08D2DDF91CF911F910F91FF90EF90DF90AA
S1130BF008950F931F93CF93DF930FB6F8940F923A
S1130C008091B80581508093B8058091B805811111
S1130C1052C08091C505811130C050C0E091CB0510
S1130C20F091CC05C681D781CE010C96A0DA8E0155
S1130C300E5F1F4FC8019BDA8E899091C2059817E9
S1130C4010F48093C20590E09C01220F331F220F01
S1130C50331F220F331F820F931FB8018B519A4FFA
S1130C6034DA9E89E0910906F0910A06868998177C
S1130C7030F081E08093BF0502C0C0E0D0E08091F5
S1130C80C6058111CBCFCD2B09F025DDC091C00560
S1130C90CC2351F0F8DE882319F081E08093BF055E
S1130CA0C150C1F71092C0058091BF05882329F077
S1130CB027DB81E003C080E001C080E00F900FBE1D
S1130CC0DF91CF911F910F9108950F931F93CF93AD
S1130CD0DF938C01EB01C7DE4091C3055091C4053D
S1130CE0F80120813181C9018C0F9D1F42175307E0
S1130CF040F48217930768F44817590760F020E01E
S1130D000FC08217930748F04817590740F020E0B6
S1130D1007C020E005C021E003C021E001C021E0BC
S1130D20F80191838083222321F060E0841B950BDA
S1130D30E2DD5FDF811101C0E3DADF91CF911F9122
S1130D400F9108958091B805882321F081E0809364
S1130D50BF0508951092BF052091C20501C021501E
S1130D60822F90E0FC01EE0FFF1FEE0FFF1FEE0F2E
S1130D70FF1FE80FF91FEB51FA4F3081332379F34A
S1130D80AC01440F551F440F551F440F551F480F06
S1130D90591FDF010180F281E02D0280F381E02DF3
S1130DA01296FC93EE93119748515A4FE417F507A6
S1130DB029F442815381FD0152834183FC01EE0FEA
S1130DC0FF1FEE0FFF1FEE0FFF1F8E0F9F1FFC0173
S1130DD0EB51FA4F0180F281E02D86819781909347
S1130DE00A06809309062093C2050895DF92EF92C4
S1130DF0FF920F931F93CF93DF9300D0CDB7DEB74D
S1130E000CE811E0F801E380F48040E06E2D8F2DB2
S1130E10E9D7F801D180128140E06D2D812FE2D70E
S1130E2041E06D2D812FDED71A820BC0198203C0D9
S1130E3089818F5F898389818330D0F38A818F5F31
S1130E408A838A81843690F341E06E2D8F2DCAD730
S1130E5081E08093110680E00F900F90DF91CF9195
S1130E601F910F91FF90EF90DF90089582E080939F
S1130E70110680E008950F931F93CF93DF93809121
S1130E80120681111AC0CCE8D1E041E069818A815F
S1130E9040D70B811C8141E0602F812F3AD740E07D
S1130EA0602F812F9FD788810E94661080E09EDF8B
S1130EB081E08093120680E005C0813011F080E06B
S1130EC001C081E0DF91CF911F910F9108950F939D
S1130ED01F93CF93DF93D82F8B01C0918C018C2F5C
S1130EE00E941111811122C00115110509F180918F
S1130EF011068230F9F4D1111FC080911006F80157
S1130F00E80FF11D6081611107C08C2F0E94C4108D
S1130F101092100680E011C08C2F0E94C4108091A2
S1130F2010068F5F8093100681E007C080E005C043
S1130F3082E003C080E001C083E0DF91CF911F9184
S1130F400F910895CF93DF936115710541F18111DC
S1130F5028C0EB0180910F06680F711D80918C01F0
S1130F600E94C71080910F06FE01E80FF11D9081C9
S1130F70911105C0108210920F0680E013C09A30C0
S1130F8049F490838F5FC80FD11D188210920F0609
S1130F9080E008C08F5F80930F0681E003C082E089
S1130FA001C083E0DF91CF9108950F931F93CF93F6
S1130FB0DF93D82F8B01C0918C018C2F0E941111CB
S1130FC0811146C00115110509F444C08091110630
S1130FD0813011F08D2F0ADF809111068130E1F507
S1130FE0D1113CC080910E06811116C080910D066E
S1130FF0F801E80FF11D6081662349F08C2F0E94EF
S1131000C41080910D068F5F80930D0605C082E0A9
S113101080930E0610920D0680910E06823001F523
S1131020E0910D06F0E0E85FFE4F6081662351F029
S11310308C2F0E94C41080910D068F5F80930D0643
S113104081E00FC010920E0610920D0681E009C0D7
S113105081E007C081E005C081E003C083E001C0F6
S113106081E0DF91CF911F910F910895EF92FF924C
S11310700F931F93CF93DF93D82F8B017A01C091E5
S11310808C018C2F0E941111811161C00115110571
S113109009F45FC080911106813011F08D2FA6DE16
S11310A080911106813009F056C0D11156C080914B
S11310B00C06811116C080910B06F801E80FF11D92
S11310C06081662349F08C2F0E94C41080910B0626
S11310D08F5F80930B0605C081E080930C0610920D
S11310E00B0680910C068130B1F480910B06F70158
S11310F0E80FF11D6081662349F08C2F0E94C41013
S113110080910B068F5F80930B0605C082E080936D
S11311100C0610920B0680910C06823001F5E091CA
S11311200B06F0E0E85FFE4F6081662351F08C2FE0
S11311300E94C41080910B068F5F80930B0681E0A0
S11311400FC010920C0610920B0680E009C081E0DB
S113115007C081E005C081E003C083E001C081E0F5
S1131160DF91CF911F910F91FF90EF90089564EA62
S113117070E01BDF80E008951F93CF93DF93182F57
S1131180EB01AE016BEA70E0812F70DF8111F9CFC2
S1131190DF91CF911F91089529DE80E008950F9388
S11311A01F93CF93DF938C01C62F7FD2D0E0F80139
S11311B0ED0FF11D8081882331F06C2F70E0FCD697
S11311C0CF5FDF5FF4CF6C2F70E0F6D68FEFDF9147
S11311D0CF911F910F910895FF920F931F93CF9377
S11311E0DF9381114AC0082F10E015C09E01220F21
S11311F0331FF901EC0FFD1FEE0FFF1FE356FE4FE7
S1131200F580F10EC48140E06F2D8C2F82D56F2DB7
S11312108C2F94D61F5FC02FD0E0FE01EE0FFF1F6E
S1131220EC0FFD1FEE0FFF1FE356FE4F83811817CF
S1131230E8F210E014C0FE01EE0FFF1FEC0FFD1FDB
S1131240EE0FFF1FE356FE4F0281010FF18040E0D5
S1131250602F8F2D5ED5602F8F2D70D61F5FFE01FE
S1131260EE0FFF1FEC0FFD1FEE0FFF1FE356FE4FA7
S11312708081181700F380E001C082EEDF91CF91E6
S11312801F910F91FF9008955F926F927F928F92BA
S11312909F92AF92BF92CF92DF92EF92FF920F9301
S11312A01F93CF93DF931F92CDB7DEB761157105FE
S11312B009F482C0811182C06B01E82E612C812C5B
S11312C0912C540163C0F801EE0FFF1FE00FF11FD2
S11312D0EE0FFF1FE356FE4F7580760C548041E0FD
S11312E0672D852D16D540E0672D852D7BD5F12CF6
S11312F038C0F801EE0FFF1FE00FF11FEE0FFF1FC4
S1131300E356FE4F62816F0DAE014F5F5F4F8181E7
S1131310D2D58981811124C081149104A104B1041E
S113132011F0689480F8E1101BC08F2D90E0FC014F
S1131330EE0FFF1FE80FF91FEF56FE4FE60DF11DEC
S113134081E090E0008002C0880F991F0A94E2F7C0
S1131350092E000CAA0BBB0B882A992AAA2ABB2A9D
S1131360F394F801EE0FFF1FE00FF11FEE0FFF1FC4
S1131370E356FE4F8081F81608F4BBCF40E0672D9A
S1131380852DC7D4672D852DD9D563940E2D10E0F6
S1131390F801EE0FFF1FE00FF11FEE0FFF1FE356E2
S11313A0FE4F8381681608F48ECFF6018082918205
S11313B0A282B38280E003C081EE01C082EE0F906E
S11313C0DF91CF911F910F91FF90EF90DF90CF901D
S11313D0BF90AF909F908F907F906F905F90089593
S11313E0EF92FF920F931F93CF93DF93811149C024
S11313F0C82FD0E0FE01ED5EF94F8081813009F401
S113140042C0FE01EE0FFF1FEE0FFF1FED55FE4F12
S11314108281811113C0FE01EE0FFF1FEE0FFF1F2B
S1131420ED55FE4F618141E0808173D481112DC05F
S1131430CD5ED94F81E0888380E02CC0813039F5BE
S1131440CE01880F991F880F991F9C012D553E4F7F
S11314507901F9010381802FC5D5182F41E0F701E7
S11314606181808156D4182B802FECD5182B802FC6
S1131470F5D5812B71F4CD5ED94F81E0888380E06E
S113148009C081EC07C082EC05C081E003C081E0A3
S113149001C081E0DF91CF911F910F91FF90EF90F8
S11314A00895811130C090E0FC01ED5EF94F208178
S11314B0213059F5FC01EE0FFF1FEE0FFF1FED5514
S11314C0FE4F228121110FC0880F991F880F991F89
S11314D0FC01ED55FE4F618140E0808183D4882377
S11314E0B1F081E008952130A1F4880F991F880F8D
S11314F0991FFC01ED55FE4F60E08381C0D5882320
S113150051F081E0089581EC089583EC089580E022
S1131510089581E0089580E00895811130C090E03D
S1131520FC01ED5EF94F2081213059F5FC01EE0FED
S1131530FF1FEE0FFF1FED55FE4F228121110FC03B
S1131540880F991F880F991FFC01ED55FE4F61818B
S113155041E0808147D48823B1F081E008952130AF
S1131560A1F4880F991F880F991FFC01ED55FE4FB8
S113157064E6838184D5882351F081E0089581EC69
S1131580089583EC089580E0089581E0089580E053
S11315900895811120C090E0FC01ED5EF94F208197
S11315A02130D9F4FC01EE0FFF1FEE0FFF1FED55A4
S11315B0FE4F2281222399F0653698F4880F991FF3
S11315C0880F991FFC01ED55FE4F838158D5882360
S11315D051F081E0089581EC089583EC089581E051
S11315E0089581E0089580E00895DC0140E00AC098
S11315F0FB01E20FF31F2081921719F04F5F80E087
S11316000EC04F5F242F30E0FD01E20FF31F9081E5
S1131610992321F09D3061F781E001C081E0FB0155
S1131620E40FF11D9081911180E00895FC01DB012C
S113163011961C921E9209C02D913C9111972F5F17
S11316403F4F11963C932E93319680818111F4CFB4
S11316500895EF92FF920F931F93CF93DF9300D0DF
S1131660CDB7DEB78C017B011A821982BE016F5F90
S11316707F4FDCDF20E00AC089819A81F801E80FFE
S1131680F91F30832F5F01969A838983F701E20F54
S1131690F11D30813111F0CF0F900F90DF91CF9178
S11316A01F910F91FF90EF900895CF92DF92EF92E8
S11316B0FF920F931F93CF93DF93CDB7DEB7C5503F
S11316C0D1400FB6F894DEBF0FBECDBF8C01FE0132
S11316D031968FEFDF011D928A95E9F7C050DF4FF5
S11316E0188219821A821B82C050D140CC5FDE4F0F
S11316F019821882C450D140BE016C5F7E4FC8016C
S113170095DF90E050E089C0F801E60FF71F808173
S1131710282F221F2227221FE1E0F0E0EC0FFD1FFB
S1131720E50FF11D208341E0450F282F207430E0A0
S1131730022E232F000C221F330B000C221F331FF9
S1131740E1E0F0E0EC0FFD1FE40FF11D208342E027
S1131750450F282F207230E035952795359527952C
S1131760359527953595279535952795E1E0F0E052
S1131770EC0FFD1FE40FF11D208343E0450F282FDC
S1131780207130E035952795359527953595279522
S113179035952795E1E0F0E0EC0FFD1FE40FF11D16
S11317A0208344E0450F282F287030E03595279595
S11317B03595279535952795E1E0F0E0EC0FFD1F71
S11317C0E40FF11D208345E0450F282F247030E0FD
S11317D03595279535952795E1E0F0E0EC0FFD1F51
S11317E0E40FF11D208346E0450F282F227030E0DE
S11317F035952795E1E0F0E0EC0FFD1FE40FF11DB6
S1131800208327E0250FE1E0F0E0EC0FFD1FE20F5D
S1131810F11D81708083585F9F5F692F70E0CC5FFA
S1131820DE4F28813981C450D1406217730708F410
S11318306BCF515F40E001C04F5F642F70E0E1E087
S1131840F0E0EC0FFD1FE60FF71F80818130A1F758
S1131850E0E031C0CE2ED12CDB01AC0DBD1D81E00A
S113186090E08C0F9D1FA80FB91F8C9190E0A0E011
S1131870B0E06894EE24E4F8F12CEC18FD0804C000
S1131880880F991FAA1FBB1FEA94D2F7C050DF4FDD
S1131890C880D980EA80FB80C050D1408C299D2922
S11318A0AE29BF29C050DF4F88839983AA83BB83A5
S11318B0C050D140EF5FE13168F263C0C050DF4FE8
S11318C0C880D980EA80FB80C050D140A5E0CA26F8
S11318D0A0E8DA26A1E0EA26C050DF4FC882D98208
S11318E0EA82FB82C050D140C050DF4FC880D9800B
S11318F0EA80FB80C050D140CD28CE28CF2809F4FF
S11319004AC0409768177907DCF5C050DF4F8881DB
S11319109981AA81BB81C050D140880F991FAA1F09
S1131920BB1FC050DF4F88839983AA83BB83C050F9
S1131930D1404F5FE42FF0E0709681E090E08C0F8F
S11319409D1FE80FF91F6081C050DF4F8881998186
S1131950AA81BB81C050D140862BC050DF4F888301
S11319609983AA83BB83C050D140C050DF4F888184
S11319709981AA81BB81C050D140A0FFC6CF01C0CC
S11319804F5F642F70E0852F90E0FC013F976E1746
S11319907F070CF493CFF801E20FF31FC050DF4F21
S11319A088819981AA81BB81C050D1409083CC5F4A
S11319B0DE4F88819981C450D140FC013196E00FFB
S11319C0F11FC050DF4F488159816A817B81C0502B
S11319D0D14040830296F801E80FF91F108280E09D
S11319E0CB5FDE4F0FB6F894DEBF0FBECDBFDF91E5
S11319F0CF911F910F91FF90EF90DF90CF900895BA
S1131A00CF92DF92EF92FF92CF93DF93CDB7DEB701
S1131A10C550D1400FB6F894DEBF0FBECDBF7C01D8
S1131A20FE0131968FEFDF011D928A95E9F7C050D0
S1131A30DF4F188219821A821B82C050D140CC5FBA
S1131A40DE4F19821882C450D140BE016C5F7E4FB4
S1131A50C701ECDD40E090E089C0F701E20FF31F1D
S1131A608081282F221F2227221FE1E0F0E0EC0FC3
S1131A70FD1FE90FF11D208351E0590F282F207419
S1131A8030E0022E232F000C221F330B000C221FE8
S1131A90331FE1E0F0E0EC0FFD1FE50FF11D2083A3
S1131AA052E0590F282F207230E03595279535954F
S1131AB02795359527953595279535952795E1E013
S1131AC0F0E0EC0FFD1FE50FF11D208353E0590FEB
S1131AD0282F207130E03595279535952795359534
S1131AE0279535952795E1E0F0E0EC0FFD1FE50F14
S1131AF0F11D208354E0590F282F287030E03595CC
S1131B0027953595279535952795E1E0F0E0EC0F7D
S1131B10FD1FE50FF11D208355E0590F282F247078
S1131B2030E03595279535952795E1E0F0E0EC0F09
S1131B30FD1FE50FF11D208356E0590F282F227059
S1131B4030E035952795E1E0F0E0EC0FFD1FE50F5F
S1131B50F11D208327E0290FE1E0F0E0EC0FFD1FE9
S1131B60E20FF11D81708083985F4F5F242F30E076
S1131B70CC5FDE4F68817981C450D1402617370786
S1131B8008F46BCF915FA0E001C0AF5F2A2F30E073
S1131B90E1E0F0E0EC0FFD1FE20FF31F80818130E4
S1131BA0A1F780E02FC0E82EF12CF901EE0DFF1D06
S1131BB041E050E04C0F5D1FE40FF51F408150E001
S1131BC060E070E0E0E1F0E0EE19FF0904C0440FCA
S1131BD0551F661F771FEA95D2F7C050DF4FC880A4
S1131BE0D980EA80FB80C050D1404C295D296E2900
S1131BF07F29C050DF4F488359836A837B83C05059
S1131C00D1408F5F813178F25FC0C050DF4F48818F
S1131C1059816A817B81C050D14085E04827505862
S1131C2081E06827C050DF4F488359836A837B83F0
S1131C30C050D140C050DF4F488159816A817B81B7
S1131C40C050D140452B462B472B09F447C0E2171F
S1131C50F307D4F5C050DF4F488159816A817B81F5
S1131C60C050D140440F551F661F771FC050DF4F2F
S1131C70488359836A837B83C050D140AF5FEA2F86
S1131C80F0E0709621E030E02C0F3D1FE20FF31FCF
S1131C908081C050DF4F488159816A817B81C05067
S1131CA0D140482BC050DF4F488359836A837B83DC
S1131CB0C050D140C050DF4F488159816A817B8137
S1131CC0C050D14060FFC6CFEA2FF0E0292F30E0AA
S1131CD020513109E217F3070CF497CFC050DF4FBE
S1131CE088819981AA81BB81C050D140892B11F090
S1131CF081E001C080E0CB5FDE4F0FB6F894DEBF19
S1131D000FBECDBFDF91CF91FF90EF90DF90CF90CA
S1131D100895423008F060C0683008F05FC0813038
S1131D20E1F030F0823071F1833009F440C058C0E2
S1131D302AB381E090E0062E02C0880F991F0A940E
S1131D40E2F750E002C0440F551F6A95E2F7809510
S1131D508223482B4ABB80E0089527B381E090E0BA
S1131D60062E02C0880F991F0A94E2F750E002C0C1
S1131D70440F551F6A95E2F780958223482B47BB91
S1131D8080E0089524B381E090E0062E02C0880F1D
S1131D90991F0A94E2F750E002C0440F551F6A9558
S1131DA0E2F780958223482B44BB80E0089521B359
S1131DB081E090E0062E02C0880F991F0A94E2F792
S1131DC050E002C0440F551F6A95E2F780958223C4
S1131DD0482B41BB80E0089581E0089581E0089597
S1131DE081E00895423008F060C0683008F05FC0B8
S1131DF08130E1F030F0823071F1833009F440C079
S1131E0058C02BB381E090E0062E02C0880F991FC2
S1131E100A94E2F750E002C0440F551F6A95E2F7B6
S1131E2080958223482B4BBB80E0089528B381E042
S1131E3090E0062E02C0880F991F0A94E2F750E042
S1131E4002C0440F551F6A95E2F780958223482B00
S1131E5048BB80E0089525B381E090E0062E02C0DF
S1131E60880F991F0A94E2F750E002C0440F551FEF
S1131E706A95E2F780958223482B45BB80E008955C
S1131E8022B381E090E0062E02C0880F991F0A94C5
S1131E90E2F750E002C0440F551F6A95E2F78095BF
S1131EA08223482B42BB80E0089581E0089581E0BD
S1131EB0089581E008956830D8F541155105D1F1B0
S1131EC0813091F028F08230D9F0833029F134C088
S1131ED089B390E002C0959587956A95E2F7817081
S1131EE0FA01808380E0089586B390E002C095955E
S1131EF087956A95E2F78170FA01808380E00895FE
S1131F0083B390E002C0959587956A95E2F7817056
S1131F10FA01808380E0089580B390E002C0959533
S1131F2087956A95E2F78170FA01808380E00895CD
S1131F3081E0089581E0089581E008956830C0F556
S1131F40813091F028F08230D9F0833029F132C009
S1131F5081E090E002C0880F991F6A95E2F79BB375
S1131F60892B8BBB80E0089581E090E002C0880F4C
S1131F70991F6A95E2F798B3892B88BB80E008958E
S1131F8081E090E002C0880F991F6A95E2F795B34B
S1131F90892B85BB80E0089581E090E002C0880F22
S1131FA0991F6A95E2F792B3892B82BB80E008956A
S1131FB081E0089581E00895E199FECF7FBB6EBB77
S1131FC08DBB9FB7892F8F778FBF8CB384608CBBF9
S1131FD08CB382608CBB9FBF80E008958FB780680C
S1131FE08FBF0895833061F585B5E3E9F0E092850C
S1131FF0492F417050E00024569547950794569513
S113200047950794542F402D8F7B482B91FB222713
S113201020F930E0220F331F220F331F220F331F0A
S1132020477F242B838530E1839FC00111242F7CBB
S1132030282B25BD41E067E083E06BDE80E0089556
S113204081E00895833041F485B590919C00887FA8
S1132050892B85BD80E0089581E00895833069F47B
S113206025B590919E0030E1939FC0011124922FD9
S11320709F7C892B85BD80E0089581E008959FEFC2
S1132080960F9436E8F48330E9F480919E00823010
S1132090D9F470E080E090E0D4D620E030E048EC61
S11320A052E439D620E030E040E853E456D720E04B
S11320B030E040E85FE3CAD596D663BD80E008957A
S11320C081E0089581E0089581E0089581111CC0A4
S11320D08091BF019091C0018F3F910509F0B0F448
S11320E08091C2018AB98091C10180BD8091BF01F4
S11320F089B98091BF019091C0018F3F910541F052
S113210038F090BD80E0089581E0089581E008955D
S113211080E00895603811F0603439F4811107C00B
S11321208AB1682B6AB980E0089581E0089583E05C
S11321300895CF93DF931F92CDB7DEB741155105B4
S1132140C1F0603811F06034B1F4811116C0198205
S1132150603419F4898180E013C0603881F4E98126
S1132160F0E0EE0FFF1FEC5EF94F5183408380E0F7
S113217007C082E005C081E003C083E001C081E0C4
S11321800F90DF91CF9108956CB980E008958CB1E0
S1132190FB01808380E0089581113FC0411586E9E9
S11321A058076105710549F160F4403885E2580724
S11321B061057105D1F041155B4461057105C9F0F4
S11321C02EC0411582EC580781E068077105E9F0DB
S11321D0411584E8580783E068077105D1F041157B
S11321E0514E61057105D9F40CC087E689B980E0C8
S11321F0089583E389B980E0089589E189B980E08D
S1132200089580E189B980E0089588E089B980E083
S1132210089583E089B980E0089583E0089581E01A
S11322200895811103C05D9B03C0089583E0089560
S113223081E008951F920F920FB60F9211242F93ED
S11322403F934F935F936F937F938F939F93AF933A
S1132250BF93EF93FF93E0911406F091150609954F
S1132260FF91EF91BF91AF919F918F917F916F916A
S11322705F914F913F912F910F900FBE0F901F9040
S1132280189520E00AC09C3211F42F5F06C0FB01B0
S1132290E80FF11D90832F5F8F5FFA01E20FF11DAC
S11322A090819111F0CFFB01E80FF11D1082089588
S11322B0AC0130E025E00EC09A3329F0FB01E30FB6
S11322C0F11D908305C08CE2FB01E30FF11D8083B7
S11322D02F5F3F5FFA01E20FF11D90819C3261F79D
S11322E0FB01E30FF11D108280E00895CF93C0E05D
S11322F03CC067E870E080E00E9467078130C9F362
S11323002091900030E02150310980911C0690E02A
S113231002C0959587952A95E2F780FF25C0209104
S1132320900030E02150310942E3429FC001439FB5
S1132330900D112467E870E08F5C994F56D9813075
S1132340C1F02091900030E02150310981E090E00B
S113235002C0880F991F2A95E2F780959095909175
S11323601C06892380931C06CF5FC53010F281E0E0
S113237001C080E0CF91089580919000883029F4C5
S113238082E08093900010921C066091900082E39A
S1132390689FB00111246F5C794F80E00E94A2070E
S11323A0811113C02091900081E090E002C0880F59
S11323B0991F2A95E2F790911C06892B80931C069D
S11323C0809190008F5F8093900008954091180150
S11323D05091190160911A0170911B0180918C0137
S11323E0DBDE64EB70E080E00E94D50768EE73E00A
S11323F08AE196E00E94650680E0089567EB70E04C
S113240080E00E94D5078111F9CF2091900030E03F
S11324102150310980911C0690E002C09595879562
S11324202A95E2F780FFF1CF2091900030E021500F
S1132430310942E3429FC001439F900D11246EE194
S113244071E08F5C994FD1D8813049F04EE151E071
S113245060EC70E080E00E9436088111F7CF69ECEF
S113246070E080E00E94D5078111F9CF209190009F
S113247030E02150310980911C0690E002C095950E
S113248087952A95E2F780FFF1CF2091900030E004
S11324902150310942E3429FC001439F900D112412
S11324A060911C0170911D018F5C994F9ED8813001
S11324B059F040911C0150911D0162ED70E080E0E3
S11324C00E9436088111F5CF6BED70E080E00E9428
S11324D0D5078111F9CF2091900030E021503109C6
S11324E080911C0690E002C0959587952A95E2F7A5
S11324F080FFF1CF2091900030E02150310942E378
S1132500429FC001439F900D112468E271E08F5CEB
S1132510994F6BD8813049F048E251E064EE70E0A5
S113252080E00E9436088111F7CF6DEE70E080E004
S11325300E94D5078111F9CF2091900030E02150FD
S1132540310980911C0690E002C0959587952A95E3
S1132550E2F780FFF1CF2091900030E02150310963
S113256042E3429FC001439F900D11246DE176E048
S11325708F5C994F9DDE4DE156E06EE670E08AE097
S113258080DE80E00895CF93C0E049C06EE670E03D
S113259080E00E9467078130C9F32091900030E009
S11325A02150310980911C0690E002C095958795D1
S11325B02A95E2F780FF32C08091900090E0019765
S11325C022E3289FF001299FF00D1124EF5CF94FBD
S11325D08181823081F42091900030E021503109D2
S11325E042E3429FC001439F900D11248F5C994F99
S11325F007DA8823C9F02091900030E02150310996
S113260081E090E002C0880F991F2A95E2F7809537
S1132610909590911C06892380931C06CF5FC5304A
S113262008F4B4CF81E001C080E0CF910895E09137
S113263017068E2F90E08B30910520F4FC01E65DA7
S1132640FF4FEEC48BE008950E943B0768EC70E0F6
S11326508AE196E00E94650660E880E05BDD4CEB71
S113266051E160E880E065DDB9DC81E08093170624
S11326708BE00895ABDE81110EC06EE171E08EE651
S113268090E00E94290BBADE81E06CD282E0809354
S113269017068BE008958AE0809317068BE008956F
S11326A046EF50E06DEF70E080E00E943608811143
S11326B0F7CF8091900090E0019722E3289FB0012A
S11326C0299F700D11246F5C794F86E091E00E9480
S11326D0F50A813009F0AEC087E890E00E94550BFE
S11326E08EE690E00E94550B88E690E00E94550B20
S11326F084E0809317068BE0089510921C061092D4
S113270090001092160680E00E94B70885E080933E
S113271017068BE0089580911C0682FF8DC086E029
S1132720809317068BE008958091160682300CF092
S11327303FC022E38202C00111246DE176E08F5C88
S1132740994FB6DD81112DC06DE176E00E94BC0881
S11327502091900030E02150310980911C0690E0D6
S113276002C0959587952A95E2F780FFF1CF809175
S1132770900090E0019722E3289FB001299F700DFB
S113278011246F5C794F86E091E00E94F50A813054
S113279041F480E00E94360782E0E4D187E0809330
S11327A01706809116068F5F809316068BE00895B6
S11327B084E0809317068BE0089598DD813051F40E
S11327C080E00E94CC0881E0CDD186E0809317069A
S11327D08BE0089583E0C6D188E0809317068BE0F0
S11327E00895D1DE813051F480E00E94CC0881E06C
S11327F0B9D186E0809317068BE008958DE196E0C9
S1132800B9D12091900030E02150310942E3429F38
S1132810C001439F900D11248F5C994FC4D189E06E
S1132820809317068BE0089580E09CD181E00895A1
S113283080E008958BE008958BE008950E943905A7
S113284090931B0680931A0680911906811108C083
S1132850EEDE809360008B3019F081E080931906DE
S113286080911906813029F580916000811121C081
S113287080911806813019F08230D9F411C0E1E654
S1132880F0E014821382CF010E94550B61E670E0E0
S113289080E00E94670781110CC010921806089509
S11328A068E670E080E00E946707811102C0109220
S11328B0180608950F931F93CF93DF9300D000D091
S11328C0CDB7DEB78091C907811107C0809132016D
S11328D00E94EC0881E08093C907BE016F5F7F4FBF
S11328E0809132010E9444098091C5079091C607E6
S11328F0A091C707B091C80749815A816B817C8137
S113290084179507A607B70709F03FC08091C10750
S11329109091C207A091C307B091C4074817590703
S11329206A077B0791F14093C1075093C2076093F4
S1132930C3077093C40740FF0FC0433480E15807B6
S11329406105710511F436D020C04334544061054B
S11329507105D9F434D019C04115510561057105CB
S113296089F413C08A019B01082E04C0369527956B
S1132970179507950A94D2F700FF02C025D005C029
S11329808F5F01C081E08D3068F389819A81AB81CA
S1132990BC818093C5079093C607A093C707B093E3
S11329A0C8070F900F900F900F90DF91CF911F9158
S11329B00F91089581E08093CC0780E0089581E031
S11329C08093CB0780E008958D3020F48093CA076C
S11329D080E0089582ED0895CF93DF9300D01F9295
S11329E0CDB7DEB70E9439059A8389838091CF07DA
S11329F0811107C080918B010E94F00981E08093CE
S1132A00CF07CE010396A4D0EB8180919100E81703
S1132A1031F0E09391001092CE071092CD07E4308C
S1132A2009F48AC08091CE078130F9F038F0823001
S1132A3009F440C0833009F454C077C080918B01FD
S1132A400E94510A81E08093CE07EB8186E1E89FE2
S1132A50F0011124ED5CFE4F6089718982899389AC
S1132A60CE0101960E9465066DC086E1E89FF001E3
S1132A701124ED5CFE4F65898091CD07680F60934A
S1132A80CD0780918B010E94C90A8091CD078436BD
S1132A9019F482E08093CE07EB8186E1E89FF00190
S1132AA01124ED5CFE4F648970E0CE0101960E9412
S1132AB0650648C080918B010E948D0A83E0809353
S1132AC0CE07EB8186E1E89FF0011124ED5CFE4F17
S1132AD06481758186819781CE0101960E94650685
S1132AE031C086E1E89FF0011124ED5CFE4F858939
S1132AF06091CD07681B6093CD0780918B010E9484
S1132B00C90A8091CD07811102C01092CE07EB81D2
S1132B1086E1E89FF0011124ED5CFE4F648970E0CA
S1132B20CE0101960E9465060DC06AE070E0CE01F8
S1132B3001960E94650606C06AE070E0CE01019627
S1132B400E9465060F900F900F90DF91CF9108952A
S1132B50009731F020919200FC01208380E00895D9
S1132B6082EB0895843020F48093920080E00895ED
S1132B7081EB0895CF93DF9300D0CDB7DEB71A82EF
S1132B801982AE014F5F5F4F60E070E00E94CF0892
S1132B9029813A812131310508F081E00F900F90AD
S1132BA0DF91CF910895CF93DF9300D0CDB7DEB7F7
S1132BB01A821982AE014F5F5F4F64E170E00E9498
S1132BC0CF0829813A812333310508F081E00F9041
S1132BD00F90DF91CF910895CF93DF9300D0CDB7BD
S1132BE0DEB70E9439059A83898364DE62E370E06C
S1132BF0CE0101960E946506F8CFEEDEFECF1EDE02
S1132C00FECFE12CF12C01E020E030E045E550E07E
S1132C1067EA71E08CEE95E10E94BC0420E030E0AC
S1132C2045E550E06BEA71E08DEF95E10E94BC044C
S1132C3000E020E030E045E550E065EB71E08FEF27
S1132C4095E10E94BC040E940B05FFCF5058BB279E
S1132C50AA270ED048C139D130F03ED120F031F44A
S1132C609F3F11F41EF42EC10EF4E095E7FB24C13E
S1132C70E92F4AD180F3BA176207730784079507CF
S1132C8018F071F49EF562C10EF4E0950B2EBA2F84
S1132C90A02D0B01B90190010C01CA01A00111245E
S1132CA0FF27591B99F0593F50F4503E68F11A160A
S1132CB0F040A22F232F342F4427585FF3CF46959B
S1132CC037952795A795F0405395C9F77EF41F16BD
S1132CD0BA0B620B730B840BBAF09150A1F0FF0F87
S1132CE0BB1F661F771F881FC2F70EC0BA0F621F73
S1132CF0731F841F48F4879577956795B795F79563
S1132D009E3F08F0B3CF9395880F08F09927EE0FF4
S1132D109795879508950CD0E6C0DED040F0D5D0C5
S1132D2030F021F45F3F19F0C7C0511110C1CAC07F
S1132D30EBD098F39923C9F35523B1F3951B550BA5
S1132D40BB27AA2762177307840738F09F5F5F4F7A
S1132D50220F331F441FAA1FA9F333D00E2E3AF0BB
S1132D60E0E830D091505040E695001CCAF729D0D5
S1132D70FE2F27D0660F771F881FBB1F2617370724
S1132D804807AB07B0E809F0BB0B802DBF01FF2754
S1132D9093585F4F2AF09E3F510568F08DC0D7C00D
S1132DA05F3FECF3983EDCF3869577956795B7958E
S1132DB0F7959F5FC9F7880F911D9695879597F9A9
S1132DC00895E1E0660F771F881FBB1F6217730722
S1132DD08407BA0720F0621B730B840BBA0BEE1F37
S1132DE088F7E095089598D088F09F5790F0B92F10
S1132DF09927B751A0F0D1F0660F771F881F991F4C
S1132E001AF0BA95C9F712C0B13081F09FD0B1E081
S1132E1008959CC0672F782F8827B85F39F0B93F91
S1132E20CCF3869577956795B395D9F73EF490954D
S1132E308095709561957F4F8F4F9F4F0895E894CB
S1132E4009C097FB3EF490958095709561957F4FEE
S1132E508F4F9F4F9923A9F0F92F96E9BB2793959C
S1132E60F695879577956795B795F111F8CFFAF4AC
S1132E70BB0F11F460FF1BC06F5F7F4F8F4F9F4FDD
S1132E8016C0882311F096E911C0772321F09EE83B
S1132E90872F762F05C0662371F096E8862F70E0A1
S1132EA060E02AF09A95660F771F881FDAF7880F7B
S1132EB09695879597F9089597F99F6780E870E04C
S1132EC060E008959FEF80EC089500240A9416169C
S1132ED0170618060906089500240A941216130604
S1132EE0140605060895092E0394000C11F4882392
S1132EF052F0BB0F40F4BF2B11F460FF04C06F5FAE
S1132F007F4F8F4F9F4F089557FD9058440F551F83
S1132F1059F05F3F71F04795880F97FB991F61F057
S1132F209F3F79F087950895121613061406551FCE
S1132F30F2CF4695F1DF08C0161617061806991F3A
S1132F40F1CF86957105610508940895E894BB272F
S1132F5066277727CB0197F908950BD0C4CFB5DF47
S1132F6028F0BADF18F0952309F0A6CFABCF1124CF
S1132F70EECFCADFA0F3959FD1F3950F50E0551F14
S1132F80629FF001729FBB27F00DB11D639FAA27BA
S1132F90F00DB11DAA1F649F6627B00DA11D661F09
S1132FA0829F2227B00DA11D621F739FB00DA11D2A
S1132FB0621F839FA00D611D221F749F3327A00DE4
S1132FC0611D231F849F600D211D822F762F6A2F80
S1132FD011249F5750408AF0E1F088234AF0EE0F05
S1132FE0FF1FBB1F661F771F881F91505040A9F712
S1132FF09E3F510570F060CFAACF5F3FECF3983E3F
S1133000DCF3869577956795B795F795E7959F5F78
S1133010C1F7FE2B880F911D9695879597F9089512
S1133020EE0FFF1F0590F491E02D0994F894FFCF63
S11330300BAA030100000000AA0400000000AA0279
S11330401300000000000000000000000000000069
S113305000000000000000AA0103414548000000F0
S113306002040405030005050005050002030249E6
S1133070444C450041542B494E510041542B4C497A
S11330804E4B3D0041540041542B4E414D453F00B1
S113309041542B4E414D453D0041542B524F4C451C
S11330A03F0041542B524F4C453D0041542B50534B
S11330B057443F0041542B505357443D0041542B37
S11330C0414444523F00302C322C31300041542BC7
S11330D0494E514D3D004F4B0D0A003100333834F9
S11330E030302C312C300000009600000B01435589
S11330F031202D20310000003232383938390000B7
S1133100000000B80B0000F4010000F4010000F41A
S1133110010000DC0500000A02DC050000FA0000E2
S113312000FA000000FA000000EE0200000A04B0F9
S1133130040000C8000000C8000000C800000058D7
S11331400200000A052C01000032000000320000D9
S11331500032000000960000000A1400000203037D
S1133160030102030405060708090A0B0C04020103
S113317003020503070103484D4900496E6469636E
S113318061746F7200426C7565746F6F74680019B6
S10731900086180099
S9030000FC
