S01D00004563686F5465726D696E616C537472696E675350492E73726563E9
S11300000C942A000C943F000C943F000C943F0085
S11300100C943F000C943F000C943F000C943F0060
S11300200C943F000C943F000C943F000C943F0050
S11300300C943F000C943F000C943F000C943F0040
S11300400C943F000C943F000C943F000C943F0030
S11300500C943F0011241FBECFE5D8E0DEBFCDBF16
S113006010E0A0E6B0E0ECE1F3E002C005900D92F0
S1130070AC36B107D9F70E948A010C948C010C9418
S11300800000683080F5813079F028F0823031F05A
S1130090833039F02AC0EAE3F0E008C0E4E3F0E09A
S11300A005C0E1E3F0E002C0E7E3F0E0413061F4D1
S11300B0208181E090E002C0880F991F6A95E2F7E1
S11300C0822B808380E00895411111C0208181E05A
S11300D090E002C0880F991F6A95E2F78095822309
S11300E0808380E0089582E0089583E0089581E0AC
S11300F00895683080F5813079F028F0823031F04D
S1130100833039F02AC0EBE3F0E008C0E5E3F0E027
S113011005C0E2E3F0E002C0E8E3F0E0413061F45E
S1130120208181E090E002C0880F991F6A95E2F770
S1130130822B808380E00895411111C0208181E0E9
S113014090E002C0880F991F6A95E2F78095822398
S1130150808380E0089582E0089583E0089584E038
S113016008951F93CF93DF9381112FC0D09168001E
S1130170CD2FC071D4FF1FC010916000C0916100E9
S113018041E0612F8C2F0E94410041E0612F8C2FB0
S11301900E94790041E060916600809167000E94AE
S11301A0410041E060916200809163000E9441003F
S11301B0DDB9C0E00BC041E060916400809165004E
S11301C00E94410080E48DB901C0C6E08C2FDF910C
S11301D0CF911F910895FF920F931F93CF93DF93B5
S11301E06115710509F444C0811144C0442319F018
S11301F04F3F29F041C000916100F0906000142F3E
S1130200EB014F3F29F040E06F2D802F0E947900D1
S113021080E006C0769B04C031C0892F01C080E015
S1130220779BF8CF282F30E0FE01E20FF31F9FB138
S113023090839D3049F42F5F3F4FC20FD31F188224
S11302401F3F79F480E01BC091E0980FFE01E90F95
S1130250F11D31972081283001F7913001F381504D
S1130260DFCF41E06F2D802F0E94790080E007C02E
S113027084E005C086E003C085E001C081E0DF9131
S1130280CF911F910F91FF90089581110BC0809120
S11302906B008AB980916A0080BD8091690089B938
S11302A080E0089586E008956115710581F081115B
S11302B010C005C05D9BFECF8CB99F5F01C090E06C
S11302C0FB01E90FF11D80818111F4CF089584E0D1
S11302D0089586E00895CF93DF93CDB7DEB7CE5F60
S11302E0D1090FB6F894DEBF0FBECDBF80E00E94E7
S11302F0450180E00E94B1004FEFBE016F5F7F4F68
S113030080E00E94EB00BE016F5F7F4F80E00E949F
S10F03105401F2CF0E946B01F894FFCF5F
S10F031C040107010601050140338618A6
S9030000FC
