:100000000C942A000C9447000C9447000C94470071
:100010000C9447000C9447000C9447000C94470044
:100020000C9447000C9447000C9447000C94470034
:100030000C9447000C9447000C9447000C94470024
:100040000C9447000C9447000C9447000C94470014
:100050000C94470011241FBECFE5D8E0DEBFCDBF12
:1000600010E0A0E6B0E0EAEBF8E002C005900D92E7
:10007000A638B107D9F721E0A6E8B0E001C01D928B
:10008000A135B207E1F70E94E6030C945B040C94DF
:100090000000DF92EF92FF920F931F93CF93DF93B5
:1000A00081115BC0D62F60916B00C0916A00D09027
:1000B0006900F0906800E090670010916600009180
:1000C000650040E080916C000E94670340E06D2D68
:1000D0008C2F0E946703C0E011C08C2F90E0049623
:1000E0004D2F50E002C0559547958A95E2F7417033
:1000F0006C2F600F812F0E946703CF5FC43068F3BD
:1001000041E06E2D8F2D0E9467030E94C60240E0E1
:100110006E2D8F2D0E946703C0E00FC04D2F50E061
:100120000C2E02C0559547950A94E2F741706C2F4A
:10013000600F812F0E946703CF5FC43078F341E0E6
:100140006E2D8F2D0E9467030E94C60240E06E2D27
:100150008F2D0E94670380E001C082E0DF91CF9184
:100160001F910F91FF90EF90DF900895EF92FF9213
:100170000F931F93CF93DF9381113AC060916B006F
:10018000F0906A00E0906900C091680000916700FB
:1001900010916600D091650041E080916C000E9452
:1001A0002F0341E06E2D8F2D0E942F0341E0602F21
:1001B0008C2F0E942F03C0E007C06C2F6D0F41E011
:1001C000812F0E942F03CF5FC430B8F362E080E03C
:1001D0000E94490068E280E00E9449006CE080E0F3
:1001E0000E94490061E080E00E94490080E001C077
:1001F00082E0DF91CF911F910F91FF90EF900895D2
:10020000DF92EF92FF920F931F93CF93DF938111B1
:100210005BC0D62F60916B00C0916A00D0906900DE
:10022000F0906800E0906700109166000091650012
:1002300041E080916C000E94670340E06D2D8C2F9F
:100240000E946703C0E011C08C2F90E004964D2FF0
:1002500050E002C0559547958A95E2F741706C2FA2
:10026000600F812F0E946703CF5FC43068F341E0C5
:100270006E2D8F2D0E9467030E94C60240E06E2DF6
:100280008F2D0E946703C0E00FC04D2F50E00C2E51
:1002900002C0559547950A94E2F741706C2F600FA4
:1002A000812F0E946703CF5FC43078F341E06E2D49
:1002B0008F2D0E9467030E94C60240E06E2D8F2D95
:1002C0000E94670380E001C082E0DF91CF911F911F
:1002D0000F91FF90EF90DF9008958F929F92BF92C1
:1002E000CF92DF92EF92FF921F93CF93DF9361152E
:1002F000710509F465C0811165C04B0160916B0007
:10030000C0916A00D0916900C0906800D0906700E9
:10031000E0906600F090650041E080916C000E94E2
:10032000670340E06D2F8C2F0E946703B12C41C002
:100330004881812F90E0049650E002C05595479582
:100340008A95E2F74170612F6F0D8E2D0E94670331
:100350001F5F01C010E0143058F341E06D2D8C2D6B
:100360000E9467030E94C60240E06D2D8C2D0E9402
:10037000670310E00FC0488150E0012E02C0559580
:1003800047950A94E2F74170612F6F0D8E2D0E9400
:1003900067031F5F143078F341E06D2D8C2D0E94B0
:1003A00067030E94C60240E06D2D8C2D0E946703FA
:1003B000B394E401CB0DD11D88818111CBCF03C053
:1003C00081E001C082E0DF91CF911F91FF90EF901B
:1003D000DF90CF90BF909F908F90089581110FC0B4
:1003E000662329F0613021F490E4940F01C0942F2A
:1003F000692F606880E00E94490080E0089582E0F3
:100400000895811109C060916D0041E080916E00F6
:100410000E942F0380E0089581E00895811109C0B2
:1004200060916D0041E080916E000E94670380E062
:10043000089581E00895811109C060916D0040E048
:1004400080916E000E94670380E0089581E0089526
:100450000F931F93CF93009791F481E017C0EC2F77
:10046000F0E03196EE0FFF1FE00FF11F0190F081D9
:10047000E02D309751F0802F0995CF5F02C08C019D
:10048000C0E0C43660F380E001C080E0CF911F91EE
:100490000F910895009729F0FC011182108280E0ED
:1004A000089581E00895009799F06115710591F024
:1004B000FC012181E22FF0E03196EE0FFF1FE80FE3
:1004C000F91F718360832F5FFC01218380E0089511
:1004D00081E0089581E00895009729F0FC01608390
:1004E0000E942802089581E00895811104C00E94AD
:1004F000F00280E0089581E00895EF92FF920F935B
:100500001F93CF93DF9300D0CDB7DEB7811133C0F7
:100510007B01082F10E0F801EE0FFF1FEE0FFF1F09
:10052000E00FF11FE05AFF4FBE016F5F7F4F8081E8
:100530000E940503282F81111CC0F801EE0FFF1F38
:10054000EE0FFF1F0E0F1F1FF801E05AFF4F6181D2
:10055000728149815A81649FC001659F900D749F8B
:10056000900D1124638174810E943304F70160832C
:1005700003C021E001C021E0822F0F900F90DF9196
:10058000CF911F910F91FF90EF900895CF93DF933C
:1005900000D000D0CDB7DEB71A82198215C01C82F8
:1005A0000BC01B8203C08B818F5F8B838B8182305A
:1005B000D0F38C818F5F8C838C81803290F3898122
:1005C0009A8101969A83898389819A8184369105DB
:1005D00030F30F900F900F900F90DF91CF9108950F
:1005E00080918600813079F097B180918500892BC8
:1005F00087B996B180918400892B86B981E0809378
:10060000860080E0089583E0089590918600992304
:1006100001F161157105F9F08830F8F497B18F7127
:10062000892B87B986B1806486B9349BFECF86B1A9
:10063000806186B984B190E0FB019183808325B10C
:1006400030E0322F2227820F931F9183808380E036
:10065000089584E0089581E0089582E00895683067
:1006600080F5813079F028F0823031F0833039F034
:100670002AC0EAE3F0E008C0E4E3F0E005C0E1E30B
:10068000F0E002C0E7E3F0E0413061F4208181E076
:1006900090E002C0880F991F6A95E2F7822B808351
:1006A00080E00895411111C0208181E090E002C0F6
:1006B000880F991F6A95E2F780958223808380E0F6
:1006C000089582E0089583E0089581E008956830F8
:1006D00080F5813079F028F0823031F0833039F0C4
:1006E0002AC0EBE3F0E008C0E5E3F0E005C0E2E398
:1006F000F0E002C0E8E3F0E0413061F4208181E005
:1007000090E002C0880F991F6A95E2F7822B8083E0
:1007100080E00895411111C0208181E090E002C085
:10072000880F991F6A95E2F780958223808380E085
:10073000089582E0089583E0089584E00895FC011F
:100740008081853620F480E00E940E02089580E0CA
:100750000E941B0208951F93CF93DF93FC01208119
:10076000C9E22C9FC12D1124C295CF70822F90E039
:10077000F4E6CF9F8019910911246AE070E00E948D
:100780004704162F962F990F892F880F880F890FEE
:1007900034E6C39F800D1124D22FD81B4AE060E0BD
:1007A00080E00E94EE0160E36C0F80E00E94000197
:1007B00060E3610F80E00E94000160E36D0F80E064
:1007C0000E940001DF91CF911F910895CF93DF9395
:1007D0001F92CDB7DEB780E00E94750280E00E94D4
:1007E000010280E00E94B6006FE670E080E00E94A7
:1007F0006D0140E061E080E00E94EE0169E770E099
:1008000080E00E946D014AE061E080E00E94EE011C
:1008100061E380E00E94000160E380E00E9400014B
:1008200060E380E00E94000187E890E00E944A02B5
:100830006FE973E087E890E00E9453026BEA73E08F
:1008400087E890E00E945302BE016F5F7F4F80E017
:100850000E947D026981161721F087E890E00E94CE
:100860006C021981F1CFAA1BBB1B51E107C0AA1F63
:10087000BB1FA617B70710F0A61BB70B881F991F41
:100880005A95A9F780959095BC01CD01089597FBE5
:10089000072E16F4009407D077FD09D00E94330488
:1008A00007FC05D03EF4909581959F4F0895709573
:0A08B00061957F4F0895F894FFCF83
:1008BA0000960034010403070206020502010143FF
:1008CA00757272656E743A20005265717569726547
:0608DA00643A2000814099
:00000001FF
