S0130000547261666669635369676E2E73726563C1
S11300000C942A000C9447000C9447000C9447006D
S11300100C9447000C9447000C9447000C94470040
S11300200C9447000C9447000C9447000C94470030
S11300300C9447000C9447000C9447000C94470020
S11300400C9447000C9447000C9447000C94470010
S11300500C94470011241FBECFE5D8E0DEBFCDBF0E
S113006010E0A0E6B0E0E0E7F4E002C005900D92F5
S1130070AA3CB107D9F720E0AAECB0E001C01D9278
S1130080AB3CB207E1F70E9431020C9436020C94A7
S113009000008091CA00813001F16091C30041E009
S11300A08091C4000E94BF00811119C06091C100F9
S11300B041E08091C2000E94BF00811112C0609192
S11300C0BF0041E08091C0000E94BF0081110BC0BD
S11300D081E08093CA0080E0089583E0089582E07F
S11300E0089582E0089582E008959091CA009923CA
S11300F0D9F0823049F0833061F08130B9F48091D5
S1130100C4006091C30009C08091C2006091C10025
S113011004C08091C0006091BF0040E00E94F700DD
S1130120882331F082E0089584E0089581E0089501
S113013080E008959091CA009923D9F0823049F063
S1130140833061F08130B9F48091C4006091C300C0
S113015009C08091C2006091C10004C08091C000B8
S11301606091BF0041E00E94F700882331F082E0F3
S1130170089584E0089581E0089580E0089568304A
S113018080F5813079F028F0823031F0833039F015
S11301902AC0EAE3F0E008C0E4E3F0E005C0E1E3EC
S11301A0F0E002C0E7E3F0E0413061F4208181E057
S11301B090E002C0880F991F6A95E2F7822B808332
S11301C080E00895411111C0208181E090E002C0D7
S11301D0880F991F6A95E2F780958223808380E0D7
S11301E0089582E0089583E0089581E008956830D9
S11301F080F5813079F028F0823031F0833039F0A5
S11302002AC0EBE3F0E008C0E5E3F0E005C0E2E378
S1130210F0E002C0E8E3F0E0413061F4208181E0E5
S113022090E002C0880F991F6A95E2F7822B8083C1
S113023080E00895411111C0208181E090E002C066
S1130240880F991F6A95E2F780958223808380E066
S1130250089582E0089583E0089584E0089581116B
S11302601CC08091C5009091C6008F3F910509F094
S1130270B0F48091C8008AB98091C70080BD809194
S1130280C50089B98091C5009091C6008F3F910542
S113029041F038F090BD80E0089586E0089585E04F
S11302A0089580E008956115710581F0811110C0F1
S11302B005C05D9BFECF8CB99F5F01C090E0FB0140
S11302C0E90FF11D80818111F4CF089584E0089530
S11302D086E008956115710541F1811128C003C0BC
S11302E080E0982F01C090E05F9BFECF292F30E083
S11302F0FB01E20FF31F8CB180838D3041F42F5F3B
S11303003F4FFB01E20FF31F108280E0089581E06C
S1130310890FFB01E80FF11D31972081283009F77F
S11303208130F1F28FEF890FDCCF84E0089586E00D
S11303300895DC0140E00AC0FB01E20FF31F2081B5
S1130340921719F04F5F80E00EC04F5F242F30E00A
S1130350FD01E20FF31F9081992321F09D3061F795
S113036081E001C081E0FB01E40FF11D9081911156
S113037080E008950E94490080E00E942F010895C2
S1130380CF93DF93CDB7DEB7C85CD1090FB6F8942D
S1130390DEBF0FBECDBFBE016F5F7F4F80E00E9406
S11303A06A0160E670E0CE0101960E9499018130F5
S11303B079F482E00E94750083E00E94750081E078
S11303C00E949A0066E670E080E00E9453013FC0FC
S11303D068E770E0CE0101960E949901813071F4C2
S11303E00E94750083E00E94750082E00E949A00DA
S11303F06DE770E080E00E94530129C060E970E07D
S1130400CE0101960E949901813071F40E94750019
S113041082E00E94750083E00E949A0065E970E022
S113042080E00E94530113C065EA70E0CE0101969A
S11304300E949901813031F468EA70E080E00E9402
S1130440530105C06DEA70E080E00E945301C85377
S1130450DF4F0FB6F894DEBF0FBECDBFDF91CF9153
S113046008950E94BA010E94C001FDCFF894FFCF05
S1130470535441525400477265656E204C454420E4
S11304806973206F6E200D00574149540059656C03
S11304906C6F77204C4544206973206F6E200D00EB
S11304A053544F5000526564204C454420697320D6
S11304B06F6E200D004154004F4B200D00496E76A5
S11304C0616C696420436F6D6D616E64200D000280
S10D04D0000100000033008618004C
S9030000FC
