S01900004563686F436861726163746572554152542E73726563C3
S11300000C942A000C943F000C943F000C943F0085
S11300100C943F000C943F000C943F000C943F0060
S11300200C943F000C943F000C943F000C943F0050
S11300300C943F000C943F000C943F000C943F0040
S11300400C943F000C943F000C943F000C943F0030
S11300500C943F0011241FBECFE5D8E0DEBFCDBF16
S113006010E0A0E6B0E0E2E7F1E002C005900D92F6
S1130070A436B107D9F70E949A000C94B7000C94E7
S113008000009091630098130BC0809162008AB9BC
S11300908091610080BD8091600089B980E00895FD
S11300A086E008956115710599F0909163009817A1
S11300B039F086E008955D9BFECF8CB99F5F01C047
S11300C090E0FB01E90FF11D80818111F4CF0895C7
S11300D084E008956115710559F1909163009817B2
S11300E029F086E0089580E0982F01C090E05F9B9E
S11300F0FECF292F30E0FB01E20FF31F8CB1808388
S11301008D3041F42F5F3F4FFB01E20FF31F10824C
S113011080E0089581E0890FFB01E80FF11D31971C
S11301202081283009F78130F1F28FEF890FDCCF7D
S113013084E00895CF93DF93CDB7DEB7C85CD109CF
S11301400FB6F894DEBF0FBECDBF10916300812FB0
S11301500E944100BE016F5F7F4F812F0E946A00A1
S1130160BE016F5F7F4F812F0E945200F3CFF8943E
S1050170FFCFBB
S107017233861800B4
S9030000FC
