:100000000C942A000C9447000C9447000C94470071
:100010000C9447000C9447000C9447000C94470044
:100020000C9447000C9447000C9447000C94470034
:100030000C9447000C9447000C9447000C94470024
:100040000C9447000C9447000C9447000C94470014
:100050000C94470011241FBECFE5D8E0DEBFCDBF12
:1000600011E0A0E6B0E0E8EDF2E002C005900D92EC
:10007000A030B107D9F721E0A0E0B1E001C01D92A6
:10008000A130B207E1F70E9465000C946A010C945C
:100090000000CF93DF931F92CDB7DEB7AE014F5F65
:1000A0005F4F60E082E00E941101811102C08981EE
:1000B00001C0FFCF0F90DF91CF91089560E080E005
:1000C0000E9443018111FFCF089580E690E00E94D5
:1000D00076008111FFCF0E9449008130E1F70E9434
:1000E0005E000E9449008130E1F3F5CFCF93DF93AA
:1000F000AC0180910001813009F490C04115510597
:1001000009F489C090E07FC0E92FF0E09F01220F41
:10011000331F220F331FE20FF31FE40FF51F21815E
:100120002130A9F028F0223041F0233059F075C079
:10013000AAE3B0E0CBE3D0E00EC0A4E3B0E0C5E3B7
:10014000D0E009C0A1E3B0E0C2E3D0E004C0A7E37F
:10015000B0E0C8E3D0E02281213049F58C9121E064
:1001600030E0008002C0220F331F0A94E2F7282BF0
:100170002C938481813061F4888121E030E000801B
:1001800002C0220F331F0A94E2F7282B28833AC0BB
:10019000811138C0888121E030E0008002C0220F48
:1001A000331F0A94E2F72095282328832BC02111BE
:1001B00029C08C9121E030E0008002C0220F331F63
:1001C0000A94E2F7209528232C938381813061F4EF
:1001D000888121E030E0008002C0220F331F0A94A2
:1001E000E2F7282B28830EC081110CC0888121E002
:1001F00030E0008002C0220F331F0A94E2F72095FE
:10020000282328839F5F903208F47ECF81E080937B
:10021000000180E003C085E001C083E0DF91CF9161
:10022000089590910001992341F14115510539F14B
:10023000813079F028F0823031F0833039F021C0FC
:10024000E9E3F0E008C0E3E3F0E005C0E0E3F0E05C
:1002500002C0E6E3F0E0808190E002C095958795CA
:100260006A95E2F780FF05C081E0FA01808380E0B3
:100270000895FA01108280E0089582E0089585E0F3
:10028000089583E00895909100019923F9F0813059
:1002900079F028F0823031F0833039F019C0EBE387
:1002A000F0E008C0E5E3F0E005C0E2E3F0E002C002
:1002B000E8E3F0E0208181E090E002C0880F991F20
:1002C0006A95E2F78227808380E0089582E00895AE
:0802D00083E00895F894FFCFCC
:1002D800000001000001000000000200000000030F
:1002E80000000000040000000005000000000600F7
:1002F80000000007000000000001000000010100EC
:1003080000000201000000030100000004010000D9
:1003180000050100000006010000000701000000C0
:1003280000020000000102000000020200000003B9
:10033800020000000402000000050200000006029E
:100348000000000702000000000300000001030095
:100358000000020300000003030000000403000083
:10036800000503000000060300000007030000006A
:00000001FF
