S01400004932435F775F454550524F4D2E7372656355
S11300000C942A000C943F000C943F000C943F0085
S11300100C943F000C943F000C943F000C943F0060
S11300200C943F000C943F000C943F000C943F0050
S11300300C943F000C943F000C943F000C943F0040
S11300400C943F000C943F000C943F000C943F0030
S11300500C943F0011241FBECFE5D8E0DEBFCDBF16
S113006010E0A0E6B0E0E4E1F2E002C005900D92F9
S1130070A636B107D9F70E948B000C9408010C94A2
S11300800000813039F480E00E94B500882321F01B
S113009082E0089581E0089580E008950F931F930E
S11300A0CF93DF93813039F5C22F8A01D62F80E0B8
S11300B00E94C100811121C060EA0E94CC0081111C
S11300C01EC06D2F0E94CC0081111BC0D0E00AC05D
S11300D0F801ED0FF11D608180E00E94CC008111D8
S11300E012C0DF5FDC17A0F380E00E94D9008823F0
S11300F061F082E00BC081E009C082E007C082E0C9
S113010005C082E003C082E001C080E0DF91CF91AE
S11301101F910F910895CF93DF93CDB7DEB7C85CDD
S1130120D1090FB6F894DEBF0FBECDBF81E00E94A7
S1130130410080E00E94E50025E040E650E060E0F8
S113014081E00E944E00BE016F5F7F4F80E00E94FD
S1130150F10080E090E0C853DF4F0FB6F894DEBFA3
S11301600FBECDBFDF91CF910895811108C083E008
S113017081B987E080B984E086BF80E0089582E099
S11301800895811107C084EA86BF06B607FEFDCF35
S113019080E0089582E00895811109C063B986B7AB
S11301A0846886BF06B607FEFDCF80E0089582E02E
S11301B00895811108C084E986BF96B7892F80719C
S11301C094FDFBCF089582E00895811108C088E171
S11301D08AB986E880BD83E389B980E0089586E022
S11301E008956115710581F0811110C005C05D9BF2
S11301F0FECF8CB99F5F01C090E0FB01E90FF11DB8
S113020080818111F4CF089584E0089586E00895F3
S1070210F894FFCF8C
S109021457524954450055
S9030000FC
