:100000000C942A000C943F000C943F000C943F0089
:100010000C943F000C943F000C943F000C943F0064
:100020000C943F000C943F000C943F000C943F0054
:100030000C943F000C943F000C943F000C943F0044
:100040000C943F000C943F000C943F000C943F0034
:100050000C943F0011241FBECFE5D8E0DEBFCDBF1A
:1000600010E0A0E6B0E0E4E0FBE002C005900D92F5
:10007000A436B107D9F70E9426020C9480050C948F
:10008000000062E081E00E94C8028130A1F065E0DA
:1000900082E00E94C802813081F066E082E00E9426
:1000A000C802813061F067E082E00E94C8028130BE
:1000B00041F483E0089580E0089581E0089582E0AE
:1000C000089584E00895823091F128F4882349F05E
:1000D000813011F108958330A9F1843009F45AC0B8
:1000E00008958091620081110AC040E06EE10E9493
:1000F0004C0240E06EE181E00E944C02089541E034
:100100006091630080E00E944C0241E060916300D6
:1001100081E00E944C02089541E06EE180E00E947F
:100120004C0240E06EE181E00E944C02089540E004
:100130006EE180E00E944C0241E06EE181E00E94AD
:100140004C020895809163008E3141F490916200D9
:10015000913021F48CE38093630008958C3321F473
:100160008AE58093630008958A3531F48EE18093A7
:1001700063001092620008958E3141F48091620014
:10018000811104C081E080936200089584E080932F
:100190006100089580E00E949B0281E00E949B0222
:1001A0000895CF930E942D0241E062E082E00E9418
:1001B000060140E062E081E00E94B402C82F40E006
:1001C00065E082E00E94B402C82B40E066E082E075
:1001D0000E94B402C82B40E067E082E00E94B402B3
:1001E0008C2B11F081E001C080E0CF9108950E9436
:1001F0004100809361009091600089130E94630028
:10020000809161008093600080E008958130D1F09A
:1002100028F0823059F18330E9F108952AB381E062
:1002200090E0062E02C0880F991F0A94E2F750E072
:1002300002C0440F551F6A95E2F780958223482B30
:100240004ABB089527B381E090E0062E02C0880FD4
:10025000991F0A94E2F750E002C0440F551F6A95B7
:10026000E2F780958223482B47BB089524B381E0B1
:1002700090E0062E02C0880F991F0A94E2F750E022
:1002800002C0440F551F6A95E2F780958223482BE0
:1002900044BB089521B381E090E0062E02C0880F90
:1002A000991F0A94E2F750E002C0440F551F6A9567
:1002B000E2F780958223482B41BB08958130D1F02D
:1002C00028F0823059F18330E9F108952BB381E0B1
:1002D00090E0062E02C0880F991F0A94E2F750E0C2
:1002E00002C0440F551F6A95E2F780958223482B80
:1002F0004BBB089528B381E090E0062E02C0880F22
:10030000991F0A94E2F750E002C0440F551F6A9506
:10031000E2F780958223482B48BB089525B381E0FE
:1003200090E0062E02C0880F991F0A94E2F750E071
:1003300002C0440F551F6A95E2F780958223482B2F
:1003400045BB089522B381E090E0062E02C0880FDD
:10035000991F0A94E2F750E002C0440F551F6A95B6
:10036000E2F780958223482B42BB0895813099F0B3
:1003700028F08230E9F0833041F1089589B3082EE6
:10038000000C990B02C0959587956A95E2F78170EC
:10039000FA018083089586B3082E000C990B02C0E1
:1003A000959587956A95E2F78170FA0180830895A3
:1003B00083B3082E000C990B02C0959587956A951A
:1003C000E2F78170FA018083089580B3082E000C53
:1003D000990B02C0959587956A95E2F78170FA01AD
:1003E00080830895813089F028F08230C9F083300D
:1003F00011F1089581E090E002C0880F991F6A957D
:10040000E2F79BB3892B8BBB089581E090E002C09B
:10041000880F991F6A95E2F798B3892B88BB0895D6
:1004200081E090E002C0880F991F6A95E2F795B3CA
:10043000892B85BB089581E090E002C0880F991F49
:100440006A95E2F792B3892B82BB08950E94D1008E
:100450008111FFCF0E94F700FDCF0E940D0341E004
:1004600062E083E00E94060141E063E083E00E94D5
:10047000060141E066E083E00E94060141E067E09A
:1004800083E00E94060161E081E00E942B0362E0AC
:1004900081E00E942B030895CF93DF93D62FC42FC2
:1004A000882319F0813019F143C061E081E00E9496
:1004B0001A036D2F81E00E943A03CC2369F0C1300A
:1004C000B9F541E062E083E00E945E0140E063E054
:1004D00083E00E945E012CC040E062E083E00E9465
:1004E0005E0141E063E083E00E945E0121C062E0C2
:1004F00081E00E941A036D2F82E00E943A03CC2310
:1005000069F0C130A9F441E066E083E00E945E0139
:1005100040E067E083E00E945E010AC040E066E0E0
:1005200083E00E945E0141E067E083E00E945E019B
:10053000DF91CF910895882319F0813059F0089503
:1005400061E081E00E942B0340E064E083E00E94D0
:100550005E01089562E081E00E942B0340E065E0C7
:1005600083E00E945E0108951F93CF93DF93C82F0D
:10057000D62F142F40E00E940601111104C06D2FE8
:100580008C2F0E94F20180E0DF91CF911F9108959E
:100590000F931F93CF93DF9300D000D01F92CDB75E
:1005A000DEB7182F062F81E08983AE014F5F5F4FC2
:1005B000812F0E94B6018981811124C01B821A8279
:1005C00015C01D820BC01C8203C08C818F5F8C8381
:1005D0008C818431D0F38D818F5F8D838D818031CB
:1005E00090F38A819B8101969B838A838A819B8178
:1005F000883E934030F3AE014F5F5F4F602F812FF5
:100600000E94B60189810F900F900F900F900F906C
:10061000DF91CF911F910F9108958FB58C7F8160ED
:100620009EB5977E98609EBD8F7380688F7C806238
:100630008FBD0895813071F4613019F0623031F06E
:1006400008958FB58F7380688FBD08958FB58F7CA7
:1006500080628FBD0895813061F4613019F062309D
:1006600029F008958FB58F738FBD08958FB58F7C56
:100670008FBD0895813019F08230E9F0089570E05F
:1006800080E090E00E94870420E030E048EC52E4F3
:100690000E94E40320E030E040E853E40E941305A8
:1006A00020E030E040E85FE30E9477030E945604B8
:1006B0007BBD6ABD089570E080E090E00E948704F1
:1006C00020E030E048EC52E40E94E40320E030E017
:1006D00040E853E40E94130520E030E040E85FE387
:1006E0000E9477030E94560479BD68BD0895505852
:1006F000BB27AA270E948F030C94D9040E94CB0425
:1007000038F00E94D20420F039F49F3F19F426F407
:100710000C94C8040EF4E095E7FB0C94C204E92F96
:100720000E94EA0458F3BA17620773078407950713
:1007300020F079F4A6F50C940C050EF4E0950B2E40
:10074000BA2FA02D0B01B90190010C01CA01A00123
:100750001124FF27591B99F0593F50F4503E68F17E
:100760001A16F040A22F232F342F4427585FF3CFBF
:10077000469537952795A795F0405395C9F77EF490
:100780001F16BA0B620B730B840BBAF09150A1F0D9
:10079000FF0FBB1F661F771F881FC2F70EC0BA0F5F
:1007A000621F731F841F48F4879577956795B795E7
:1007B000F7959E3F08F0B0CF9395880F08F09927E2
:1007C000EE0F9795879508950E94F8030C94D9042D
:1007D0000E94D20458F00E94CB0440F029F45F3FFD
:1007E00029F00C94C20451110C940D050C94C8040A
:1007F0000E94EA0468F39923B1F3552391F3951B02
:10080000550BBB27AA2762177307840738F09F5F31
:100810005F4F220F331F441FAA1FA9F335D00E2E9E
:100820003AF0E0E832D091505040E695001CCAF70B
:100830002BD0FE2F29D0660F771F881FBB1F2617CE
:1008400037074807AB07B0E809F0BB0B802DBF01A5
:10085000FF2793585F4F3AF09E3F510578F00C9474
:10086000C2040C940D055F3FE4F3983ED4F38695E3
:1008700077956795B795F7959F5FC9F7880F911D95
:100880009695879597F90895E1E0660F771F881F81
:10089000BB1F621773078407BA0720F0621B730B34
:1008A000840BBA0BEE1F88F7E09508950E94F204BE
:1008B00088F09F5798F0B92F9927B751B0F0E1F021
:1008C000660F771F881F991F1AF0BA95C9F714C0D1
:1008D000B13091F00E940C05B1E008950C940C0524
:1008E000672F782F8827B85F39F0B93FCCF386950A
:1008F00077956795B395D9F73EF490958095709567
:1009000061957F4F8F4F9F4F0895E89409C097FBE3
:100910003EF490958095709561957F4F8F4F9F4FD6
:100920009923A9F0F92F96E9BB279395F69587951A
:1009300077956795B795F111F8CFFAF4BB0F11F4DD
:1009400060FF1BC06F5F7F4F8F4F9F4F16C0882384
:1009500011F096E911C0772321F09EE8872F762FBA
:1009600005C0662371F096E8862F70E060E02AF0FB
:100970009A95660F771F881FDAF7880F96958795E7
:1009800097F9089597F99F6780E870E060E008950F
:100990009FEF80EC089500240A9416161706180697
:1009A0000906089500240A94121613061406050673
:1009B0000895092E0394000C11F4882352F0BB0F04
:1009C00040F4BF2B11F460FF04C06F5F7F4F8F4F67
:1009D0009F4F089557FD9058440F551F59F05F3FA2
:1009E00071F04795880F97FB991F61F09F3F79F051
:1009F00087950895121613061406551FF2CF4695D3
:100A0000F1DF08C0161617061806991FF1CF869554
:100A10007105610508940895E894BB276627772738
:100A2000CB0197F908950E9426050C94D9040E94E1
:100A3000CB0438F00E94D20420F0952311F00C94DE
:100A4000C2040C94C80411240C940D050E94EA04FD
:100A500070F3959FC1F3950F50E0551F629FF00111
:100A6000729FBB27F00DB11D639FAA27F00DB11D2A
:100A7000AA1F649F6627B00DA11D661F829F2227B3
:100A8000B00DA11D621F739FB00DA11D621F839F3A
:100A9000A00D611D221F749F3327A00D611D231F10
:100AA000849F600D211D822F762F6A2F11249F575E
:100AB00050409AF0F1F088234AF0EE0FFF1FBB1F61
:100AC000661F771F881F91505040A9F79E3F510520
:100AD00080F00C94C2040C940D055F3FE4F3983E43
:100AE000D4F3869577956795B795F795E7959F5FCA
:100AF000C1F7FE2B880F911D9695879597F908955C
:040B0000F894FFCF97
:040B04000404011EC6
:00000001FF
