S02000004465626F756E63696E675061747465726E546573744170702E7372656367
S11300000C9431000C944E000C944E000C944E0051
S11300100C944E000C944E000C944E000C944E0024
S11300200C944E000C944E000C944E000C944E0014
S11300300C944E000C944E000C944E000C944E0004
S11300400C944E000C944E000C944E000C944E00F4
S11300500C944E001F022A02350240024B02560243
S1130060610211241FBECFE5D8E0DEBFCDBF10E092
S1130070A0E6B0E0E4E9FBE002C005900D92AC36E6
S1130080B107D9F720E0ACE6B0E001C01D92A13879
S1130090B207E1F70E942B040C94C8050C940000ED
S11300A0CF93DF93EC0180916C00813081F018F0E4
S11300B0823031F13CC0BE016E5F7F4F88810E9467
S11300C0EA00811136C081E080936C0035C060E5A0
S11300D070E08B810E94BD038B3F59F44C815D819C
S11300E06E817F8120E530E08B810E942C0381E0CA
S11300F023C0811120C082E080936C0081E01CC089
S1130100BE016F5F7F4F88810E94EA009A818981D6
S1130110981307C0E885F985309729F0099580E0A0
S113012003C081E001C080E010926C0005C081E052
S113013003C081E001C081E0DF91CF910895FC010B
S113014081E080831182128283E08383148215828A
S1130150168217821186108680E00895611102C00C
S1130160FC01608381E00895633040F4FC01638303
S1130170248335834683578380E0089581E008957E
S11301806115710529F0FC017187608780E008958D
S113019081E008951F93CF93DF93811114C08111DF
S11301A005C0E0E6F0E0C081D181128140E06D2F0E
S11301B08C2F0E940301113041F46D2F8C2F0E946B
S11301C03B0180E003C08EEF01C080E0DF91CF915E
S11301D01F910895811111C06115710581F081117C
S11301E004C0E0E6F0E090812181AB01622F892F09
S11301F00E946001811105C008958EEF08958FEF6C
S1130200089581E00895683080F5813079F028F010
S1130210823031F0833039F02AC0EAE3F0E008C0DC
S1130220E4E3F0E005C0E1E3F0E002C0E7E3F0E07E
S1130230413061F4208181E090E002C0880F991F71
S11302406A95E2F7822B808380E00895411111C002
S1130250208181E090E002C0880F991F6A95E2F73F
S113026080958223808380E0089582E0089583E06E
S1130270089581E008956830F8F4813079F028F029
S1130280823031F0833039F019C0EBE3F0E008C07C
S1130290E5E3F0E005C0E2E3F0E002C0E8E3F0E00B
S11302A0208181E090E002C0880F991F6A95E2F7EF
S11302B0822B808380E0089582E0089583E008958E
S11302C04115510539F1683038F5813079F028F05D
S11302D0823031F0833039F021C0E9E3F0E008C026
S11302E0E3E3F0E005C0E0E3F0E002C0E6E3F0E0C1
S11302F0808190E002C0959587956A95E2F780FF2A
S113030005C081E0FA01808380E00895FA0110823B
S113031080E0089585E0089582E0089583E00895DB
S11303206830F8F4813079F028F0823031F083308D
S113033039F019C0EBE3F0E008C0E5E3F0E005C0F4
S1130340E2E3F0E002C0E8E3F0E0208181E090E045
S113035002C0880F991F6A95E2F78227808380E0A4
S1130360089582E0089583E00895823008F04EC035
S113037090E0FC01EE0FFF1F8E0F9F1FFC01ED5953
S1130380FF4F8281833009F128F4813041F08230BB
S113039089F0A2C0843021F1853069F19DC080E0EC
S11303A090E0A0E8BDE3FB0180839183A283B38343
S11303B080E0089580E090E0A0E0BFE3FB0180834B
S11303C09183A283B38380E0089580E090E0A0E865
S11303D0B0E4FB0180839183A283B38380E008951A
S11303E080E090E0A0E8B1E4FB0180839183A283E4
S11303F0B38380E0089580E090E0A0E8B2E4FB01DC
S113040080839183A283B38380E00895823009F0CE
S113041065C090E0FC01EE0FFF1F8E0F9F1FFC01D3
S1130420ED59FF4FE2818E2F90E0FC013197E730C8
S1130430F10508F055C0E65DFF4F0C94A80580E077
S113044090E0A0E8BDE3FB0180839183A283B383A2
S113045080E0089580E090E0A0E0BFE3FB018083AA
S11304609183A283B38380E0089580E090E0A0E0CC
S1130470B0E4FB0180839183A283B38380E0089579
S113048080E090E0A0E8B0E4FB0180839183A28344
S1130490B38380E0089580E090E0A0E0B1E4FB0144
S11304A080839183A283B38380E0089580E090E009
S11304B0A0E8B1E4FB0180839183A283B38380E04D
S11304C0089580E090E0A0E8B2E4FB01808391838A
S11304D0A283B38380E008958CEF089580E00895AB
S11304E08CEF0895813071F018F0823031F01EC025
S11304F0E2E5F0E0A3E5B0E009C0E4E4F0E0A5E45F
S1130500B0E004C0ECE4F0E0AEE4B0E060832C9131
S113051090E0FC01EE0FFF1F8E0F9F1FFC01ED59B1
S1130520FF4F8281822B8C9380E008958EEF089593
S11305306115710509F47AC0813041F120F08230EF
S113054009F452C075C090E0FC01EE0FFF1F8E0F3E
S11305509F1FFC01ED59FF4F8081811109C008B62E
S113056000FE68C0FB01108298B7916098BF08959F
S1130570883009F061C008B601FE60C081E0FB016B
S1130580808388B7826088BF80E0089590E0FC0192
S1130590EE0FFF1F8E0F9F1FFC01ED59FF4F80814F
S11305A0811109C008B602FE4BC0FB01108298B746
S11305B0946098BF0895883009F044C098B7892F93
S11305C0807194FF08C081E0FB01808388B780615B
S11305D088BF80E0089593FF37C091E0FB019083CA
S11305E098B7986098BF089590E0FC01EE0FFF1F44
S11305F08E0F9F1FFC01ED59FF4F8081811109C0AF
S113060008B606FE23C0FB01108298B7906498BF19
S113061008958830E9F408B607FE1CC081E0FB01A8
S1130620808388B7806888BF80E008958FEF08953D
S11306308EEF08958DEF089580E008958DEF08956D
S11306408DEF089580E008958DEF08958DEF08955E
S113065080E008958DEF08958F929F92AF92BF929C
S1130660DF92EF92FF920F931F93CF93DF9300D00B
S113067000D0CDB7DEB7182F042FD52EE62EF72ED7
S1130680833008F065C02115310509F463C0309347
S11306906E0020936D0080916F0081115DC0BE01DA
S11306A06F5F7F4F812F0E94B5018C3F09F44EC0CC
S11306B089809A80AB80BC8020E030E0A901C5012C
S11306C0B4010E945004882381F0602F7D2D8E2D6B
S11306D09F2D0E94F604A50194010E9455040E94D6
S11306E0C704062FD72EE82EF92EA8EEB3E0202F4C
S11306F03D2D4E2D5F2D0E94AE05BB27A92F982FAF
S1130700872F8093720090937300A0937400B0932A
S1130710750028EE029F002D112400937000892B90
S11307208A2B8B2B49F481E080937100602F70E059
S1130730812F0E94720205C06FEF70E0812F0E942A
S1130740720281E080936F008DEF07C08CEF05C0CB
S11307508EEF03C081E001C081E00F900F900F90F5
S11307600F90DF91CF911F910F91FF90EF90DF9049
S1130770BF90AF909F908F9008951F93CF93DF9376
S11307801F92CDB7DEB790916F00992309F449C049
S113079020916D0030916E002617370709F043C091
S11307A0913009F042C0182FBE016F5F7F4F0E9445
S11307B09802811135C080917100813041F410920A
S11307C06F00109271001092700080E02FC0809131
S11307D0720090917300A0917400B091750001971C
S11307E0A109B1098093720090937300A0937400DF
S11307F0B0937500892B8A2B8B2B59F481E080935D
S113080071006091700070E0812F0E9472028DEF80
S11308100DC06FEF70E0812F0E9472028DEF06C051
S113082005C08BEF03C081E001C081E00F90DF9130
S1130830CF911F91089580917700811107C0909105
S11308408000891719F060E00E9490018091770080
S113085080938000089580E00E94CA0041E060E037
S113086080E00E94030186E790E00E949F0060E020
S113087086E790E00E94AE0024E130E040E050E0E2
S113088062E086E790E00E94B4006BE174E086E7E2
S113089090E00E94C00086E790E00E945000FBCFE9
S11308A00E94330508F481E008950E9469040C94C1
S11308B06E050E94670558F00E94600540F029F417
S11308C05F3F29F00C94570551110C94A2050C9428
S11308D05D050E947F0568F39923B1F3552391F3D5
S11308E0951B550BBB27AA2762177307840738F09B
S11308F09F5F5F4F220F331F441FAA1FA9F335D0F8
S11309000E2E3AF0E0E832D091505040E695001CAB
S1130910CAF72BD0FE2F29D0660F771F881FBB1F65
S1130920261737074807AB07B0E809F0BB0B802D43
S1130930BF01FF2793585F4F3AF09E3F510578F06F
S11309400C9457050C94A2055F3FE4F3983ED4F34E
S1130950869577956795B795F7959F5FC9F7880F43
S1130960911D9695879597F90895E1E0660F771F95
S1130970881FBB1F621773078407BA0720F0621B26
S1130980730B840BBA0BEE1F88F7E09508950E9451
S1130990870588F09F5798F0B92F9927B751B0F081
S11309A0E1F0660F771F881F991F1AF0BA95C9F7EF
S11309B014C0B13091F00E94A105B1E008950C94E7
S11309C0A105672F782F8827B85F39F0B93FCCF39A
S11309D0869577956795B395D9F73EF4909580956C
S11309E0709561957F4F8F4F9F4F0895E89409C08C
S11309F097FB3EF490958095709561957F4F8F4F4E
S1130A009F4F9923A9F0F92F96E9BB279395F69563
S1130A10879577956795B795F111F8CFFAF4BB0FE1
S1130A2011F460FF1BC06F5F7F4F8F4F9F4F16C045
S1130A30882311F096E911C0772321F09EE8872FCF
S1130A40762F05C0662371F096E8862F70E060E08B
S1130A502AF09A95660F771F881FDAF7880F969504
S1130A60879597F90895990F0008550FAA0BE0E8A8
S1130A70FEEF16161706E807F907C0F0121613065C
S1130A80E407F50798F0621B730B840B950B39F49C
S1130A900A2661F0232B242B252B21F408950A2602
S1130AA009F4A140A6958FEF811D811D089597F942
S1130AB09F6780E870E060E008959FEF80EC089500
S1130AC000240A9416161706180609060895002429
S1130AD00A9412161306140605060895092E0394A3
S1130AE0000C11F4882352F0BB0F40F4BF2B11F417
S1130AF060FF04C06F5F7F4F8F4F9F4F089557FD76
S1130B009058440F551F59F05F3F71F04795880F77
S1130B1097FB991F61F09F3F79F08795089512160E
S1130B2013061406551FF2CF4695F1DF08C01616BA
S1130B3017061806991FF1CF86957105610508946B
S1130B400895E894BB2766277727CB0197F9089582
S1130B50EE0FFF1F0590F491E02D09940E94B90552
S1130B60A59F900DB49F900DA49F800D911D1124FD
S1130B700895A29FB001B39FC001A39F700D811D72
S1130B801124911DB29F700D811D1124911D089592
S1070B90F894FFCF03
S10F0B940200010000000000000000014D
S9030000FC
