S02000004465626F756E63696E675061747465726E546573744170702E7372656367
S11300000C9431000C944E000C944E000C944E0051
S11300100C944E000C944E000C944E000C944E0024
S11300200C944E000C944E000C944E000C944E0014
S11300300C944E000C944E000C944E000C944E0004
S11300400C944E000C944E000C944E000C944E00F4
S11300500C944E00C601D101DC01E701F201FD015F
S1130060080211241FBECFE5D8E0DEBFCDBF10E0EB
S1130070A0E6B0E0E8EBFAE002C005900D92AA36E3
S1130080B107D9F720E0AAE6B0E001C01D92A53778
S1130090B207E1F70E94C2030C945A050C940000C5
S11300A00F931F93CF93DF931F92CDB7DEB78C01CD
S11300B080916A00813089F018F0823039F137C0BC
S11300C0CE0101960E94A200811133C089818093E0
S11300D06B0081E080936A002FC060E570E082E0ED
S11300E00E9464038B3F59F420E530E044E150E082
S11300F060E070E082E00E94D30281E01DC08111C3
S11301001AC082E080936A0081E016C0CE01019695
S11301100E94A20090916B008981981304C0F80199
S1130120808380E001C081E010926A0005C081E014
S113013003C081E001C081E00F90DF91CF911F9156
S11301400F910895AC0160E082E00E9407018111E3
S113015081E00895683080F5813079F028F08230AC
S113016031F0833039F02AC0EAE3F0E008C0E4E378
S1130170F0E005C0E1E3F0E002C0E7E3F0E0413085
S113018061F4208181E090E002C0880F991F6A9594
S1130190E2F7822B808380E00895411111C0208111
S11301A081E090E002C0880F991F6A95E2F780957C
S11301B08223808380E0089582E0089583E0089597
S11301C081E008956830F8F4813079F028F08230C5
S11301D031F0833039F019C0EBE3F0E008C0E5E317
S11301E0F0E005C0E2E3F0E002C0E8E3F0E02081E3
S11301F081E090E002C0880F991F6A95E2F7822B94
S1130200808380E0089582E0089583E00895411595
S1130210510539F1683038F5813079F028F08230B1
S113022031F0833039F021C0E9E3F0E008C0E3E3C2
S1130230F0E005C0E0E3F0E002C0E6E3F0E0808136
S113024090E002C0959587956A95E2F780FF05C016
S113025081E0FA01808380E00895FA01108280E051
S1130260089585E0089582E0089583E00895683054
S1130270F8F4813079F028F0823031F0833039F0AD
S113028019C0EBE3F0E008C0E5E3F0E005C0E2E309
S1130290F0E002C0E8E3F0E0208181E090E002C0F9
S11302A0880F991F6A95E2F78227808380E008957A
S11302B082E0089583E00895823008F04EC090E013
S11302C0FC01EE0FFF1F8E0F9F1FFC01E05AFF4F32
S11302D08281833009F128F4813041F0823089F041
S11302E0A2C0843021F1853069F19DC080E090E0A6
S11302F0A0E8BDE3FB0180839183A283B38380E004
S1130300089580E090E0A0E0BFE3FB018083918347
S1130310A283B38380E0089580E090E0A0E8B0E495
S1130320FB0180839183A283B38380E0089580E0FE
S113033090E0A0E8B1E4FB0180839183A283B383BE
S113034080E0089580E090E0A0E8B2E4FB018083BF
S11303509183A283B38380E00895823009F065C05D
S113036090E0FC01EE0FFF1F8E0F9F1FFC01E05A6F
S1130370FF4FE2818E2F90E0FC013197E730F105C9
S113038008F055C0E65DFF4F0C943A0580E090E01C
S1130390A0E8BDE3FB0180839183A283B38380E063
S11303A0089580E090E0A0E0BFE3FB0180839183A7
S11303B0A283B38380E0089580E090E0A0E0B0E4FD
S11303C0FB0180839183A283B38380E0089580E05E
S11303D090E0A0E8B0E4FB0180839183A283B3831F
S11303E080E0089580E090E0A0E0B1E4FB01808328
S11303F09183A283B38380E0089580E090E0A0E835
S1130400B1E4FB0180839183A283B38380E00895E8
S113041080E090E0A0E8B2E4FB0180839183A283B2
S1130420B38380E008958CEF089580E008958CEF05
S11304300895813071F018F0823031F01EC0E2E589
S1130440F0E0A3E5B0E009C0E4E4F0E0A5E4B0E046
S113045004C0ECE4F0E0AEE4B0E060832C9190E002
S1130460FC01EE0FFF1F8E0F9F1FFC01E05AFF4F90
S11304708281822B8C9380E008958EEF089561151C
S1130480710509F47AC0813041F120F0823009F419
S113049052C075C090E0FC01EE0FFF1F8E0F9F1F2E
S11304A0FC01E05AFF4F8081811109C008B600FEAB
S11304B068C0FB01108298B7916098BF0895883096
S11304C009F061C008B601FE60C081E0FB018083D1
S11304D088B7826088BF80E0089590E0FC01EE0F49
S11304E0FF1F8E0F9F1FFC01E05AFF4F8081811177
S11304F009C008B602FE4BC0FB01108298B7946095
S113050098BF0895883009F044C098B7892F807146
S113051094FF08C081E0FB01808388B7806188BFB5
S113052080E0089593FF37C091E0FB01908398B772
S1130530986098BF089590E0FC01EE0FFF1F8E0FA6
S11305409F1FFC01E05AFF4F8081811109C008B64A
S113055006FE23C0FB01108298B7906498BF0895EB
S11305608830E9F408B607FE1CC081E0FB018083F3
S113057088B7806888BF80E008958FEF08958EEF74
S113058008958DEF089580E008958DEF08958DEF1F
S1130590089580E008958DEF08958DEF089580E02B
S11305A008958DEF08958F929F92AF92BF92DF923C
S11305B0EF92FF920F931F93CF93DF9300D000D05D
S11305C0CDB7DEB7182F042FD52EE62EF72E8330A5
S11305D008F065C02115310509F463C030936D003E
S11305E020936C0080916E0081115DC0BE016F5F2D
S11305F07F4F812F0E945C018C3F09F44EC089809B
S11306009A80AB80BC8020E030E0A901C501B40130
S11306100E94E203882381F0602F7D2D8E2D9F2D73
S11306200E948804A50194010E94E7030E945904D2
S1130630062FD72EE82EF92EA8EEB3E0202F3D2D5D
S11306404E2D5F2D0E944005BB27A92F982F872F81
S11306508093710090937200A0937300B093740020
S113066028EE029F002D112400936F00892B8A2B02
S11306708B2B49F481E080937000602F70E0812F10
S11306800E94190205C06FEF70E0812F0E941902C9
S113069081E080936E008DEF07C08CEF05C08EEF74
S11306A003C081E001C081E00F900F900F900F9084
S11306B0DF91CF911F910F91FF90EF90DF90BF904A
S11306C0AF909F908F9008951F93CF93DF931F92C5
S11306D0CDB7DEB790916E00992309F449C02091FB
S11306E06C0030916D002617370709F043C0913034
S11306F009F042C0182FBE016F5F7F4F0E943F0276
S1130700811135C080917000813041F410926E00E7
S11307101092700010926F0080E02FC080917100E1
S113072090917200A0917300B09174000197A10997
S1130730B1098093710090937200A0937300B093F9
S11307407400892B8A2B8B2B59F481E080937000E1
S113075060916F0070E0812F0E9419028DEF0DC02F
S11307606FEF70E0812F0E9419028DEF06C005C063
S11307708BEF03C081E001C081E00F90DF91CF9146
S11307801F910895CF93DF931F92CDB7DEB740E05A
S113079060E082E00E94AA0060E082E00E94E20041
S11307A041E060E080E00E94AA00CE0101960E9430
S11307B050008111FACF89818111F7CF60E00E9446
S11307C03701F3CF0E94C50408F481E008950E9424
S11307D0FB030C9400050E94F90458F00E94F204F3
S11307E040F029F45F3F29F00C94E90451110C9472
S11307F034050C94EF040E94110568F39923B1F3B6
S1130800552391F3951B550BBB27AA276217730732
S1130810840738F09F5F5F4F220F331F441FAA1FC6
S1130820A9F335D00E2E3AF0E0E832D09150504082
S1130830E695001CCAF72BD0FE2F29D0660F771F30
S1130840881FBB1F261737074807AB07B0E809F016
S1130850BB0B802DBF01FF2793585F4F3AF09E3F9B
S1130860510578F00C94E9040C9434055F3FE4F3EB
S1130870983ED4F3869577956795B795F7959F5FDE
S1130880C9F7880F911D9695879597F90895E1E02A
S1130890660F771F881FBB1F621773078407BA0789
S11308A020F0621B730B840BBA0BEE1F88F7E095E4
S11308B008950E94190588F09F5798F0B92F992739
S11308C0B751B0F0E1F0660F771F881F991F1AF037
S11308D0BA95C9F714C0B13091F00E943305B1E064
S11308E008950C943305672F782F8827B85F39F063
S11308F0B93FCCF3869577956795B395D9F73EF4D0
S113090090958095709561957F4F8F4F9F4F089577
S1130910E89409C097FB3EF4909580957095619595
S11309207F4F8F4F9F4F9923A9F0F92F96E9BB274B
S11309309395F695879577956795B795F111F8CFC7
S1130940FAF4BB0F11F460FF1BC06F5F7F4F8F4F32
S11309509F4F16C0882311F096E911C0772321F028
S11309609EE8872F762F05C0662371F096E8862FC0
S113097070E060E02AF09A95660F771F881FDAF717
S1130980880F9695879597F90895990F0008550F44
S1130990AA0BE0E8FEEF16161706E807F907C0F001
S11309A012161306E407F50798F0621B730B840B09
S11309B0950B39F40A2661F0232B242B252B21F4E3
S11309C008950A2609F4A140A6958FEF811D811D83
S11309D0089597F99F6780E870E060E008959FEFBD
S11309E080EC089500240A941616170618060906C2
S11309F0089500240A941216130614060506089591
S1130A00092E0394000C11F4882352F0BB0F40F418
S1130A10BF2B11F460FF04C06F5F7F4F8F4F9F4F58
S1130A20089557FD9058440F551F59F05F3F71F0DA
S1130A304795880F97FB991F61F09F3F79F0879541
S1130A400895121613061406551FF2CF4695F1DFCA
S1130A5008C0161617061806991FF1CF869571055A
S1130A60610508940895E894BB2766277727CB018E
S1130A7097F90895EE0FFF1F0590F491E02D099466
S1130A800E944B05A59F900DB49F900DA49F800DCF
S1130A90911D11240895A29FB001B39FC001A39F8B
S1130AA0700D811D1124911DB29F700D811D1124A3
S10B0AB0911D0895F894FFCF95
S10D0AB8000000000000000001002F
S9030000FC
