S0130000554152545F4472697665722E737265630A
S11300000C942A000C943C000C943C000C943C008E
S11300100C943C000C943C000C943C000C943C006C
S11300200C943C000C943C000C943C000C943C005C
S11300300C943C000C943C000C943C000C943C004C
S11300400C943C000C943C000C943C000C943C003C
S11300500C943C0011241FBECFE5D8E0DEBFCDBF19
S113006020E0A0E6B0E001C01D92A136B207E1F79E
S11300700E943E000C94BB000C940000CF93DF93CD
S1130080CDB7DEB7C85CD1090FB6F894DEBF0FBE9A
S1130090CDBF83E390E00E945600CE0101960E94FA
S11300A08A00CE0101960E947100F7CF2091600072
S11300B0213099F08F3F910509F088F428E12AB99D
S11300C026E820BD89B98F3F910511F008F090BD55
S11300D081E08093600080E0089585E0089587E0E2
S11300E008959C0180916000882381F021153105D9
S11300F079F090E004C05D9BFECF8CB99F5FF9015D
S1130100E90FF11D80818111F6CF089586E00895ED
S113011084E00895AC0180916000882341F1411589
S1130120510539F120E002C090E0292F5F9BFECFFA
S1130130622F70E0FA01E60FF71F9CB190839D30A7
S113014041F46F5F7F4FFA01E60FF71F108280E0E2
S1130150089591E0920FFA01E90FF11D3197808122
S1130160883019F7913001F39FEF920FDECF86E0CC
S10D0170089584E00895F894FFCF89
S9030000FC
