:100000000C942A000C9434000C9434000C943400AA
:100010000C9434000C9434000C9434000C94340090
:100020000C9434000C9434000C9434000C94340080
:100030000C9434000C9434000C9434000C94340070
:100040000C9434000C9434000C9434000C94340060
:100050000C94340011241FBECFE5D8E0DEBFCDBF25
:100060000E9436000C94A1000C940000CF93DF9303
:10007000CDB7DEB7C85CD1090FB6F894DEBF0FBEAE
:10008000CDBF80E00E945100BE016F5F7F4F80E0D6
:100090000E947200BE016F5F7F4F80E00E945B0094
:1000A000F3CF811106C088E18AB986E880BD83E379
:1000B00089B986E008956115710581F0811110C03C
:1000C00005C05D9BFECF8CB99F5F01C090E0FB0136
:1000D000E90FF11D80818111F4CF089584E0089526
:1000E00086E008956115710541F1811128C003C0B2
:1000F00080E0982F01C090E05F9BFECF292F30E079
:10010000FB01E20FF31F8CB180838D3041F42F5F30
:100110003F4FFB01E20FF31F108280E0089581E062
:10012000890FFB01E80FF11D31972081283009F775
:100130008130F1F28FEF890FDCCF84E0089586E003
:060140000895F894FFCFC2
:00000001FF
