:100000000C946B000C9406010C942F010C94580175
:100010000C9481010C94AA010C94D3010C94FC0162
:100020000C9425020C944E020C9477020C94A002BE
:100030000C94C9020C94F2020C941B030C9444031C
:100040000C946D030C9496030C94BF030C94E8037A
:100050000C9411044D0460046004600460046004A6
:100060006004600460046004600460046004600470
:10007000600460044D046004600460046004600473
:100080006004600460046004600460046004600450
:10009000600460045104600460046004600460044F
:1000A0006004600457046004600460046004600439
:1000B000600460045104600460046004600460042F
:1000C0006004600457046004600460046004600419
:1000D000600460045D0411241FBECFE5D8E0DEBFDC
:1000E000CDBF10E0A0E6B0E0E6EFF8E002C005907A
:1000F0000D92A436B107D9F720E0A4E6B0E001C024
:100100001D92A53BB207E1F70E9461040C947904AB
:10011000282F30E0F901EE0FFF1FEC59FF4F40810F
:100120005181452B99F46115710581F0843170F48A
:10013000220F331FF901E357FF4F80819181D901CD
:10014000AC59BF4F8D939C93718360830895811147
:100150000BC08091630081B98091610080B980916A
:10016000620086BF80E0089582E00895811102C098
:1001700062B9089582E008956115710551F0811109
:100180000AC086B7806C86BF83B1FB01808380E0A4
:10019000089581E0089582E008956115710569F080
:1001A00081110DC086B78F7B86BF86B7806886BFFA
:1001B00083B1FB01808380E0089581E0089582E0AF
:1001C00008956115710541F0811108C081B1887FE2
:1001D000FB01808380E0089581E0089582E0089526
:1001E000811105C086B7816086BF80E0089582E0F6
:1001F0000895811105C086B7806886BF80E00895A4
:1002000082E008958FB780688FBF08951F920F9284
:100210000FB60F9211242F933F934F935F936F93D9
:100220007F938F939F93AF93BF93EF93FF93E0914F
:100230008D00F0918E00309709F00995FF91EF91B4
:10024000BF91AF919F918F917F916F915F914F91EE
:100250003F912F910F900FBE0F901F9018951F92F6
:100260000F920FB60F9211242F933F934F935F93EA
:100270006F937F938F939F93AF93BF93EF93FF936E
:10028000E0918F00F0919000309709F00995FF916F
:10029000EF91BF91AF919F918F917F916F915F91FE
:1002A0004F913F912F910F900FBE0F901F90189577
:1002B0001F920F920FB60F9211242F933F934F93DB
:1002C0005F936F937F938F939F93AF93BF93EF93BE
:1002D000FF93E0919100F0919200309709F0099519
:1002E000FF91EF91BF91AF919F918F917F916F910E
:1002F0005F914F913F912F910F900FBE0F901F90E4
:1003000018951F920F920FB60F9211242F933F93BF
:100310004F935F936F937F938F939F93AF93BF930D
:10032000EF93FF93E0919300F0919400309709F0E0
:100330000995FF91EF91BF91AF919F918F917F911F
:100340006F915F914F913F912F910F900FBE0F9042
:100350001F9018951F920F920FB60F9211242F9392
:100360003F934F935F936F937F938F939F93AF933D
:10037000BF93EF93FF93E0919500F0919600309733
:1003800009F00995FF91EF91BF91AF919F918F91E6
:100390007F916F915F914F913F912F910F900FBE81
:1003A0000F901F9018951F920F920FB60F92112465
:1003B0002F933F934F935F936F937F938F939F936D
:1003C000AF93BF93EF93FF93E0919700F091980064
:1003D000309709F00995FF91EF91BF91AF919F91EF
:1003E0008F917F916F915F914F913F912F910F90DE
:1003F0000FBE0F901F9018951F920F920FB60F927D
:1004000011242F933F934F935F936F937F938F9319
:100410009F93AF93BF93EF93FF93E0919900F09177
:100420009A00309709F00995FF91EF91BF91AF9134
:100430009F918F917F916F915F914F913F912F91FC
:100440000F900FBE0F901F9018951F920F920FB62E
:100450000F9211242F933F934F935F936F937F934A
:100460008F939F93AF93BF93EF93FF93E0919B0084
:10047000F0919C00309709F00995FF91EF91BF91A1
:10048000AF919F918F917F916F915F914F913F912C
:100490002F910F900FBE0F901F9018951F920F92E3
:1004A0000FB60F9211242F933F934F935F936F9347
:1004B0007F938F939F93AF93BF93EF93FF93E091BD
:1004C0009D00F0919E00309709F00995FF91EF9102
:1004D000BF91AF919F918F917F916F915F914F915C
:1004E0003F912F910F900FBE0F901F9018951F9264
:1004F0000F920FB60F9211242F933F934F935F9358
:100500006F937F938F939F93AF93BF93EF93FF93DB
:10051000E0919F00F091A000309709F00995FF91BC
:10052000EF91BF91AF919F918F917F916F915F916B
:100530004F913F912F910F900FBE0F901F901895E4
:100540001F920F920FB60F9211242F933F934F9348
:100550005F936F937F938F939F93AF93BF93EF932B
:10056000FF93E091A100F091A200309709F0099566
:10057000FF91EF91BF91AF919F918F917F916F917B
:100580005F914F913F912F910F900FBE0F901F9051
:1005900018951F920F920FB60F9211242F933F932D
:1005A0004F935F936F937F938F939F93AF93BF937B
:1005B000EF93FF93E091A300F091A400309709F02E
:1005C0000995FF91EF91BF91AF919F918F917F918D
:1005D0006F915F914F913F912F910F900FBE0F90B0
:1005E0001F9018951F920F920FB60F9211242F9300
:1005F0003F934F935F936F937F938F939F93AF93AB
:10060000BF93EF93FF93E091A500F091A600309780
:1006100009F00995FF91EF91BF91AF919F918F9153
:100620007F916F915F914F913F912F910F900FBEEE
:100630000F901F9018951F920F920FB60F921124D2
:100640002F933F934F935F936F937F938F939F93DA
:10065000AF93BF93EF93FF93E091A700F091A800B1
:10066000309709F00995FF91EF91BF91AF919F915C
:100670008F917F916F915F914F913F912F910F904B
:100680000FBE0F901F9018951F920F920FB60F92EA
:1006900011242F933F934F935F936F937F938F9387
:1006A0009F93AF93BF93EF93FF93E091A900F091D5
:1006B000AA00309709F00995FF91EF91BF91AF9192
:1006C0009F918F917F916F915F914F913F912F916A
:1006D0000F900FBE0F901F9018951F920F920FB69C
:1006E0000F9211242F933F934F935F936F937F93B8
:1006F0008F939F93AF93BF93EF93FF93E091AB00E2
:10070000F091AC00309709F00995FF91EF91BF91FE
:10071000AF919F918F917F916F915F914F913F9199
:100720002F910F900FBE0F901F9018951F920F9250
:100730000FB60F9211242F933F934F935F936F93B4
:100740007F938F939F93AF93BF93EF93FF93E0912A
:10075000AD00F091AE00309709F00995FF91EF914F
:10076000BF91AF919F918F917F916F915F914F91C9
:100770003F912F910F900FBE0F901F9018951F92D1
:100780000F920FB60F9211242F933F934F935F93C5
:100790006F937F938F939F93AF93BF93EF93FF9349
:1007A000E091AF00F091B000309709F00995FF910A
:1007B000EF91BF91AF919F918F917F916F915F91D9
:1007C0004F913F912F910F900FBE0F901F90189552
:1007D0001F920F920FB60F9211242F933F934F93B6
:1007E0005F936F937F938F939F93AF93BF93EF9399
:1007F000FF93E091B100F091B200309709F00995B4
:10080000FF91EF91BF91AF919F918F917F916F91E8
:100810005F914F913F912F910F900FBE0F901F90BE
:1008200018951F920F920FB60F9211242F933F939A
:100830004F935F936F937F938F939F93AF93BF93E8
:10084000EF93FF93E091B300F091B400309709F07B
:100850000995FF91EF91BF91AF919F918F917F91FA
:100860006F915F914F913F912F910F900FBE0F901D
:100870001F9018956CE870E080E00E94E100E09124
:100880008C008E2F90E0FC01E056F109E134F10577
:10089000B8F4E65DFF4F0C94730480E00E94F90009
:1008A000089560E670E080E00E94BC00089560E674
:1008B00070E080E00E94CD00089580E00E94F90081
:1008C000089580E00E94A70060EA80E00E94B600E0
:1008D00080E00E94F0006AE374E082E10E948800F8
:1008E0000E940201FFCFEE0FFF1F0590F491E02D53
:0608F0000994F894FFCF0B
:0408F6004108440071
:00000001FF
